:020000040801F1
:1000000000000120AD2A0108FD2A0108FD2A01088F
:10001000FD2A0108FD2A0108FD2A01080000000050
:10002000000000000000000000000000FD2A0108A0
:10003000FD2A010800000000FD2A010879170108C7
:1000400000000000FD2A0108FD2A0108FD2A010820
:10005000FD2A0108FD2A0108FD0D0108210E0108F5
:10006000450E0108690E01088D0E0108FD2A0108E0
:10007000FD2A0108FD2A0108FD2A0108FD2A0108C0
:10008000FD2A0108FD2A0108FD2A010800000000E0
:10009000000000000000000000000000FD2A010830
:1000A000F11F0108E11E0108711F010889200108E4
:1000B00011210108F9210108C5220108FD2A0108C2
:1000C000FD2A0108FD2A0108FD2A0108FD2A010870
:1000D000FD2A0108B5260108D1260108000000000C
:1000E000FD2A0108FD2A0108FD2A01080000000080
:1000F000000000000000000000000000FD2A0108D0
:1001000000000000FD2A010891230108FD2A0108D2
:1001100000000000000000000000000000000000DF
:10012000FD2A0108FD2A0108FD2A0108FD2A01080F
:10013000FD2A01080000000000000000000000008F
:10014000000000000000000000000000FD2A01087F
:10015000FD2A0108FD2A0108FD2A0108ED260108F3
:10016000FD2A0108FD2A010800000000000000002F
:10017000000000000000000000000000000000007F
:10018000000000000000000000000000000000006F
:04019000FD2A01083B
:1001980010B5054C237833B9044B13B10448AFF3B9
:1001A80000800123237010BD5000002000000000D3
:1001B800482B010808B5034B1BB103490348AFF3AB
:1001C800008008BD0000000054000020482B0108F2
:1001D80081F0004102E000BF83F0004330B54FEAF0
:1001E80041044FEA430594EA050F08BF90EA020F5D
:1001F8001FBF54EA000C55EA020C7FEA645C7FEAF0
:10020800655C00F0E2804FEA5454D4EB5555B8BF12
:100218006D420CDD2C4480EA020281EA030382EA83
:10022800000083EA010180EA020281EA0303362D15
:1002380088BF30BD11F0004F4FEA01314FF4801CE8
:100248004CEA113102D0404261EB410113F0004FFA
:100258004FEA03334CEA133302D0524263EB4303B1
:1002680094EA050F00F0A780A4F10104D5F1200E4F
:100278000DDB02FA0EFC22FA05F2801841F10001AA
:1002880003FA0EF2801843FA05F359410EE0A5F17E
:1002980020050EF1200E012A03FA0EFC28BF4CF0AF
:1002A800020C43FA05F3C01851EBE37101F0004565
:1002B80007D54FF0000EDCF1000C7EEB00006EEB72
:1002C8000101B1F5801F1BD3B1F5001F0CD34908FC
:1002D8005FEA30004FEA3C0C04F101044FEA445253
:1002E80012F5800F80F09A80BCF1004F08BF5FEADA
:1002F800500C50F1000041EB045141EA050130BDBA
:100308005FEA4C0C404141EB0101013C28BFB1F5CB
:10031800801FE9D291F0000F04BF01460020B1FA16
:1003280081F308BF2033A3F10B03B3F120020CDAE9
:100338000C3208DD02F1140CC2F10C0201FA0CF0C7
:1003480021FA02F10CE002F11402D8BFC2F1200C2C
:1003580001FA02F120FA0CFCDCBF41EA0C019040E2
:10036800E41AA2BF01EB0451294330BD6FEA04042B
:100378001F3C1CDA0C340EDC04F11404C4F1200216
:1003880020FA04F001FA02F340EA030021FA04F328
:1003980045EA030130BDC4F10C04C4F1200220FA7F
:1003A80002F001FA04F340EA0300294630BD21FABD
:1003B80004F0294630BD94F0000F83F4801306BF83
:1003C80081F480110134013D4EE77FEA645C18BF77
:1003D8007FEA655C29D094EA050F08BF90EA020F0E
:1003E80005D054EA000C04BF1946104630BD91EA06
:1003F800030F1EBF0021002030BD5FEA545C05D109
:100408004000494128BF41F0004130BD14F5800447
:100418003CBF01F5801130BD01F0004545F0FE41BB
:1004280041F470014FF0000030BD7FEA645C1ABFF0
:10043800194610467FEA655C1CBF0B46024650EA27
:10044800013406BF52EA033591EA030F41F4002153
:1004580030BD00BF90F0000F04BF0021704730B5D9
:100468004FF4806404F132044FF000054FF00001AE
:1004780050E700BF90F0000F04BF0021704730B56F
:100488004FF4806404F1320410F0004548BF404244
:100498004FF000013EE700BF42004FEAE2014FEA99
:1004A80031014FEA02701FBF12F07F4393F07F4F74
:1004B80081F06051704732F07F4208BF704793F077
:1004C8007F4F04BF41F40021704730B54FF460748A
:1004D80001F0004521F000411CE700BF50EA01028D
:1004E80008BF704730B54FF000050AE050EA010236
:1004F80008BF704730B511F0004502D5404261EBA6
:1005080041014FF4806404F132045FEA915C3FF4E6
:10051800D8AE4FF003025FEADC0C18BF03325FEA83
:10052800DC0C18BF033202EBDC02C2F1200300FA34
:1005380003FC20FA02F001FA03FE40EA0E0021FA59
:1005480002F11444BDE600BF70B54FF0FF0C4CF447
:10055800E06C1CEA11541DBF1CEA135594EA0C0FF9
:1005680095EA0C0F00F0DEF82C4481EA030621EA34
:100578004C5123EA4C5350EA013518BF52EA03356F
:1005880041F4801143F4801338D0A0FB02CE4FF021
:100598000005E1FB02E506F00042E0FB03E54FF051
:1005A8000006E1FB03569CF0000F18BF4EF0010E49
:1005B800A4F1FF04B6F5007F64F5407404D25FEA45
:1005C8004E0E6D4146EB060642EAC62141EA5551F8
:1005D8004FEAC52040EA5E504FEACE2EB4F1FD0C3A
:1005E80088BFBCF5E06F1ED8BEF1004F08BF5FEAB8
:1005F800500E50F1000041EB045170BD06F000466A
:1006080046EA010140EA020081EA0301B4EB5C0416
:10061800C2BFD4EB0C0541EA045170BD41F480110E
:100628004FF0000E013C00F3AB8014F1360FDEBF33
:10063800002001F0004170BDC4F10004203C35DA0F
:100648000C341BDC04F11404C4F1200500FA05F392
:1006580020FA04F001FA05F240EA020001F0004233
:1006680021F0004110EBD37021FA04F642EB0601A9
:100678005EEA430E08BF20EAD37070BDC4F10C04D3
:10068800C4F1200500FA04F320FA05F001FA04F297
:1006980040EA020001F0004110EBD37041F1000183
:1006A8005EEA430E08BF20EAD37070BDC4F120058E
:1006B80000FA05F24EEA020E20FA04F301FA05F2F6
:1006C80043EA020321FA04F001F0004121FA04F29E
:1006D80020EA020000EBD3705EEA430E08BF20EA6E
:1006E800D37070BD94F0000F0FD101F000464000A8
:1006F80041EB010111F4801F08BF013CF7D041EA2A
:10070800060195F0000F18BF704703F0004652002D
:1007180043EB030313F4801F08BF013DF7D043EAFE
:100728000603704794EA0C0F0CEA135518BF95EAB4
:100738000C0F0CD050EA410618BF52EA4306D1D13B
:1007480081EA030101F000414FF0000070BD50EA5A
:10075800410606BF1046194652EA430619D094EAE4
:100768000C0F02D150EA013613D195EA0C0F05D1CE
:1007780052EA03361CBF104619460AD181EA030122
:1007880001F0004141F0FE4141F470014FF00000DA
:1007980070BD41F0FE4141F4780170BD70B54FF075
:1007A800FF0C4CF4E06C1CEA11541DBF1CEA1355F5
:1007B80094EA0C0F95EA0C0F00F0A7F8A4EB0504D7
:1007C80081EA030E52EA03354FEA013100F08880CE
:1007D8004FEA03334FF0805545EA131343EA126397
:1007E8004FEA022245EA111545EA10654FEA00264C
:1007F8000EF000419D4208BF964244F1FD0404F505
:10080800407402D25B084FEA3202B61A65EB030560
:100818005B084FEA32024FF480104FF4002CB6EB1D
:10082800020E75EB030E22BFB61A754640EA0C009D
:100838005B084FEA3202B6EB020E75EB030E22BFDD
:10084800B61A754640EA5C005B084FEA3202B6EB1E
:10085800020E75EB030E22BFB61A754640EA9C00DD
:100868005B084FEA3202B6EB020E75EB030E22BFAD
:10087800B61A754640EADC0055EA060E18D04FEA6B
:10088800051545EA16754FEA06164FEAC30343EA0B
:1008980052734FEAC2025FEA1C1CC0D111F4801FD8
:1008A8000BD141EA00014FF000004FF0004CB6E7D1
:1008B80011F4801F04BF01430020B4F1FD0C88BF70
:1008C800BCF5E06F3FF6AFAEB5EB030C04BFB6EB7B
:1008D800020C5FEA500C50F1000041EB045170BD6E
:1008E8000EF0004E4EEA113114EB5C04C2BFD4EB9B
:1008F8000C0541EA045170BD41F480114FF0000E1F
:10090800013C90E645EA060E8DE60CEA135594EA9A
:100918000C0F08BF95EA0C0F3FF43BAF94EA0C0F9D
:100928000AD150EA01347FF434AF95EA0C0F7FF412
:1009380025AF104619462CE795EA0C0F06D152EA66
:1009480003353FF4FDAE1046194622E750EA41064A
:1009580018BF52EA43067FF4C5AE50EA41047FF45B
:100968000DAF52EA43057FF4EBAE12E74FF0FF3CC0
:1009780006E000BF4FF0010C02E000BF4FF0010C91
:100988004DF804CD4FEA410C7FEA6C5C4FEA430C0A
:1009980018BF7FEA6C5C1BD001B050EA410C0CBF59
:1009A80052EA430C91EA030F02BF90EA020F0020BB
:1009B800704710F1000F91EA030F58BF994208BF22
:1009C80090422CBFD8176FEAE37040F001007047DF
:1009D8004FEA410C7FEA6C5C02D150EA013C07D136
:1009E8004FEA430C7FEA6C5CD6D152EA033CD3D081
:1009F8005DF8040B704700BF8446104662468C467B
:100A08001946634600E000BF01B5FFF7B7FF0028AD
:100A180048BF10F1000F01BD4DF808EDFFF7F4FFD6
:100A28000CBF012000205DF808FB00BF4DF808ED61
:100A3800FFF7EAFF34BF012000205DF808FB00BF84
:100A48004DF808EDFFF7E0FF94BF012000205DF8A6
:100A580008FB00BF4DF808EDFFF7CEFF94BF01205B
:100A680000205DF808FB00BF4DF808EDFFF7C4FF54
:100A780034BF012000205DF808FB00BF80B582B0BC
:100A880000AF78607B681B68D8B27B685B68DBB2B4
:100A98000122194600F008FA00BF0837BD4680BD9C
:100AA80080B582B000AF78607B681B68D8B27B687D
:100AB8005B68DBB20022194600F06EFA00BF083707
:100AC800BD4680BD80B582B000AF78607B681B688A
:100AD800DAB27B685B68DBB21946104600F02EFB81
:100AE80000BF0837BD4680BD80B582B000AF7860D2
:100AF8007B681B68DBB21946002000F043FD7B6869
:100B08009B68DBB21946002000F03CFD7B681B683F
:100B1800D8B27B685B68DBB20122194600F0C4F9E1
:100B28007B689B68D8B27B68DB68DBB20122194618
:100B380000F0BAF97B681B69042B0AD10121002057
:100B480000F020FD0221022000F01CFD042000F02E
:100B580063FE00BF0837BD4680BD80B582B000AFD8
:100B680078600B46FB701346BB70FB78022B06D0EF
:100B7800022B45DC002B2CD0012B15D040E07B68E4
:100B88001B68D8B27B685B68DBB20122194600F0AB
:100B980003FA7B689B68D8B27B68DB68DBB200220B
:100BA800194600F0F9F92BE07B681B68D8B27B681E
:100BB8005B68DBB20022194600F0EEF97B689B689F
:100BC800D8B27B68DB68DBB20122194600F0E4F991
:100BD80016E07B681B68D8B27B685B68DBB20022D2
:100BE800194600F0D9F97B689B68D8B27B68DB6846
:100BF800DBB20022194600F0CFF90023BB7000BF1A
:100C08007B681B69D8B27B685B69D9B2BB789BB239
:100C1800642200F025FE00BF0837BD4680BD80B5C0
:100C280082B000AF78607B681B68D8B27B685B686D
:100C3800DBB20022194600F0AFF97B689B68D8B296
:100C48007B68DB68DBB20022194600F0A5F97B68F7
:100C58001B69D8B27B685B69D9B20023642200F0B3
:100C6800FFFD00BF0837BD4680BD000080B582B0DB
:100C780000AF03460A46FB711346BB71FB79184661
:100C880000F0CAFDFB79044A1360BB79034A13607C
:100C980000BF0837BD4680BD700000206C000020F2
:100CA80080B584B000AF0346FB71FB799BB21A464E
:100CB80092001A44520013449BB203F5FA73FB8165
:100CC800074B1B68D8B2074B1B68D9B2FB8944F69F
:100CD800206200F0C5FD00BF1037BD4680BD00BFD3
:100CE800700000206C00002080B582B000AF034681
:100CF800FB710B46BB7113467B717A79BB79114640
:100D0800184600F00FFFFB790649BA7901F813205D
:100D1800FB79044A5B0013447A795A7000BF08379C
:100D2800BD4680BD7400002080B582B000AF7860F9
:100D38007B681B68D8B27B685B68DBB20122194606
:100D480000F0B2F87B681B68D8B27B685B68DBB2DE
:100D58000122194600F062FA0A2000F0EFFC7B68D5
:100D68001B68D8B27B685B68DBB20022194600F0CA
:100D780055FA00BF0837BD4680BD000000000000DE
:100D880080B582B000AF03463960FB71FB79184A21
:100D980012F81320FB7916495B000B445B7819465F
:100DA800104601F07FF803461846FFF753FB4FF053
:100DB80000024FF08043FFF7F1FC02460B46104655
:100DC800194609A3D3E90023FFF7BEFB02460B46E9
:100DD8003968C1E90023322000F094FC00BF0837CD
:100DE800BD4680BDAFF30080713D0AD7A3700B40AC
:100DF8007400002080B500AF054B1B689847054B71
:100E08005B69044A43F00103536100BF80BD00BF22
:100E180080000020003C014080B500AF054B1B68F6
:100E28009847054B5B69044A43F00203536100BFCE
:100E380080BD00BF84000020003C014080B500AFA9
:100E4800054B1B689847054B5B69044A43F004034C
:100E5800536100BF80BD00BF88000020003C0140F6
:100E680080B500AF054B1B689847054B5B69044A82
:100E780043F00803536100BF80BD00BF8C00002011
:100E8800003C014080B500AF054B1B689847054BF7
:100E98005B69044A43F01003536100BF80BD00BF83
:100EA80090000020003C014080B483B000AF0346AE
:100EB800FB710B46BB7113467B71FB79052B57D829
:100EC80001A252F823F000BFE90E0108010F010842
:100ED800190F0108310F0108490F0108610F0108B6
:100EE800274B1B687979BA79520001FA02F2114648
:100EF800234A0B4313603CE0224B1B687979BA798B
:100F0800520001FA02F211461E4A0B43136030E008
:100F18001D4B1B687979BA79520001FA02F2114621
:100F2800194A0B43136024E0184B1B687979BA7986
:100F3800520001FA02F21146144A0B43136018E0FA
:100F4800134B1B687979BA79520001FA02F21146FB
:100F58000F4A0B4313600CE00E4B1B687979BA7982
:100F6800520001FA02F211460A4A0B43136000E0EC
:100F780000BF00BF0C37BD465DF8047B704700BF5B
:100F8800000002400004024000080240000C024039
:100F980000100240001C024080B483B000AF03463A
:100FA800FB710B46BB7113467B717B79012B55D1C5
:100FB800FB79052B00F2AC8001A252F823F000BFA8
:100FC800E10F0108F70F01080D10010823100108AF
:100FD800391001084F100108524B5B69BA79012199
:100FE80001FA02F211464F4A0B43536193E04E4B0C
:100FF8005B69BA79012101FA02F211464A4A0B43A8
:10100800536188E0494B5B69BA79012101FA02F220
:101018001146464A0B4353617DE0454B5B69BA79FB
:10102800012101FA02F21146414A0B43536172E071
:10103800404B5B69BA79012101FA02F211463D4A37
:101048000B43536167E03C4B5B69BA79012101FAB4
:1010580002F21146384A0B4353615CE0FB79052BD9
:1010680058D801A252F823F089100108A1100108EC
:10107800B9100108D1100108E9100108011101088F
:10108800284B5B69BA79012101FA02F2D243114671
:10109800244A0B4053613EE0234B5B69BA79012136
:1010A80001FA02F2D24311461F4A0B40536132E063
:1010B8001E4B5B69BA79012101FA02F2D24311464B
:1010C8001A4A0B40536126E0194B5B69BA79012132
:1010D80001FA02F2D2431146154A0B4053611AE055
:1010E800144B5B69BA79012101FA02F2D243114625
:1010F800104A0B4053610EE00F4B5B69BA7901212E
:1011080001FA02F2D24311460B4A0B40536102E046
:1011180000BF00E000BF00BF0C37BD465DF8047B90
:10112800704700BF0000024000040240000802406F
:10113800000C024000100240001C024080B483B042
:1011480000AF03460A46FB711346BB71FB79052BBA
:1011580050D801A252F823F0791101088F11010823
:10116800A5110108BB110108D1110108E7110108F7
:10117800244B5B69BA79012101FA02F21146214A2E
:101188004B40536137E0204B5B69BA79012101FA82
:1011980002F211461C4A4B4053612CE01B4B5B6921
:1011A800BA79012101FA02F21146184A4B405361FB
:1011B80021E0174B5B69BA79012101FA02F2114665
:1011C800134A4B40536116E0124B5B69BA7901210F
:1011D80001FA02F211460F4A4B4053610BE00E4BE5
:1011E8005B69BA79012101FA02F211460A4A4B40B9
:1011F800536100E000BF00BF0C37BD465DF8047BBB
:10120800704700BF0000024000040240000802408E
:10121800000C024000100240001C024080B483B061
:1012280000AF0346FB710B46BB7113467B717B799C
:10123800012B3BD1FB79052B78D801A252F823F07A
:10124800611201086F1201087D1201088B12010852
:1012580099120108A7120108BB79374A012101FA3E
:1012680003F3936162E0BB79344A012101FA03F385
:1012780093615BE0BB79324A012101FA03F3936180
:1012880054E0BB792F4A012101FA03F393614DE041
:10129800BB792D4A012101FA03F3936146E0BB793A
:1012A8002A4A012101FA03F393613FE0BB79103325
:1012B800BB71FB79052B39D801A252F823F000BF86
:1012C800E1120108EF120108FD1201080B130108D1
:1012D8001913010827130108BB79174A012101FADC
:1012E80003F3936122E0BB79144A012101FA03F365
:1012F80093611BE0BB79124A012101FA03F3936160
:1013080014E0BB790F4A012101FA03F393610DE060
:10131800BB790D4A012101FA03F3936106E0BB7919
:101328000A4A012101FA03F3936100BF00BF0C3799
:10133800BD465DF8047B704700000240000402408F
:1013480000080240000C024000100240001C02404D
:1013580080B483B000AF0346FB710B46BB711346E4
:101368007B71BB79072B5BD8FB79052B00F2BE801C
:1013780001A252F823F000BF99130108B113010824
:10138800C9130108E1130108F91301081114010830
:101398005B4B1B6A7979BA79920001FA02F211461D
:1013A800574A0B431362A4E0564B1B6A7979BA7902
:1013B800920001FA02F21146524A0B43136298E076
:1013C800514B1B6A7979BA79920001FA02F21146F7
:1013D8004D4A0B4313628CE04C4B1B6A7979BA79FE
:1013E800920001FA02F21146484A0B43136280E068
:1013F800474B1B6A7979BA79920001FA02F21146D1
:10140800434A0B43136274E0424B1B6A7979BA79F9
:10141800920001FA02F211463E4A0B43136268E059
:10142800FB79052B64D801A252F823F04D1401086A
:101438006914010885140108A1140108BD140108E4
:10144800D91401082E4B5B6A7979BA7902F0070240
:10145800920001FA02F21146294A0B43536248E00E
:10146800284B5B6A7979BA7902F00702920001FA8F
:1014780002F21146234A0B4353623AE0224B5B6A5D
:101488007979BA7902F00702920001FA02F211465C
:101498001D4A0B4353622CE01C4B5B6A7979BA797D
:1014A80002F00702920001FA02F21146174A0B43B2
:1014B80053621EE0164B5B6A7979BA7902F007022B
:1014C800920001FA02F21146114A0B43536210E0EE
:1014D800104B5B6A7979BA7902F00702920001FA37
:1014E80002F211460B4A0B43536202E000BF00E0D0
:1014F80000BF00BF0C37BD465DF8047B704700BFD6
:10150800000002400004024000080240000C0240B3
:1015180000100240001C024080B483B000AF0346B4
:10152800FB71FB7903F01F030749FA795209D2B21C
:101538001046012202FA03F341F8203000BF0C37AD
:10154800BD465DF8047B704700E100E080B483B0DD
:1015580000AF0346FB71FB7903F01F030849FA79D2
:101568005209D2B2104601229A4000F1200341F8F4
:10157800232000BF0C37BD465DF8047B704700BFD1
:1015880000E100E080B483B000AF03460A46FB7177
:101598001346BB71FB79032B36D801A252F823F00E
:1015A800B9150108CF150108E5150108FB15010853
:1015B800194B1B68BA79012101FA02F21146164A41
:1015C8000B43136021E0154B1B68BA79012101FA1E
:1015D80002F21146114A0B43136016E0104B1B68C8
:1015E800BA79012101FA02F211460D4A0B43136040
:1015F8000BE00C4B1B68BA79012101FA02F2114683
:10160800084A0B43136000E000BF00BF0C37BD461B
:101618005DF8047B704700BF303802403438024020
:10162800403802404438024080B400AF0B4B1B687E
:101638000A4A43F001031360084B9B68074A23F0EA
:1016480001039360054B9B68044A23F002039360EF
:1016580000BFBD465DF8047B704700BF00380240FC
:1016680080B400AF054B1B68044A23F004031360E1
:1016780000BFBD465DF8047B704700BF10E000E086
:1016880080B483B000AF7860124A7B685360114B16
:1016980000229A600F4B1B680E4A43F00103136047
:1016A80000BF0C4B1B6803F48033002BF9D0094BA7
:1016B8001B68084A23F001031360064B00225A6096
:1016C800044B00229A6000BF0C37BD465DF8047BCE
:1016D800704700BF10E000E080B400AF084B1B6803
:1016E800074A23F001031360054B00225A60044B9C
:1016F80000229A6000BFBD465DF8047B704700BFBA
:1017080010E000E080B582B000AF7860FFF7A8FF76
:10171800094B1B68084A23F0020313607B684FF4E7
:10172800FA6202FB03F31846FFF7AAFFFFF7D4FF9C
:1017380000BF0837BD4680BD10E000E080B582B02C
:1017480000AF7860FFF78CFF084B1B68074A23F04F
:10175800020313607B685B001846FFF791FFFFF7F1
:10176800BBFF00BF0837BD4680BD00BF10E000E0EA
:1017780080B582B000AF0023FB71144B1B78012B9E
:1017880011D1134B1B68124A23F002031360104B4C
:101798001B680F4A23F0010313600D4B00225A60A7
:1017A8000B4B00229A600B4B1B68002B02D0094B95
:1017B8001B689847064B1B681B0CDBB203F0010340
:1017C800FB7100BF0837BD4680BD00BF98000020F0
:1017D80010E000E094000020B0B48DB000AF786055
:1017E8000C4B07F10C041D460FCD0FC495E80F00F4
:1017F80084E80F007B68013B9B0030333B4453F87F
:10180800243C03F18043FB62FB6A18463437BD462B
:10181800B0BC7047602B010880B584B000AF0346A8
:10182800FB71FB791846FFF7D7FFF860FB680022C9
:101838001A60FB6843F67F629A62FB684FF0FF32DA
:10184800DA62FB681B6843F00102FB681A60FB68F8
:101858004FF0FF325A6200BF1037BD4680BD00000E
:1018680090B585B000AF0446084611461A4623468F
:10187800FB710346BB710B46BB8013467B80FB792B
:101888005A1EBB79013BA24992000A4413441B78B3
:10189800D8B2FB795A1EBB79013B9E4992000A4493
:1018A80013441B78DBB202221946FFF7FDFAFB79D5
:1018B8005A1EBB79013B964992000A4413441B788F
:1018C800D8B2FB795A1EBB79013B924992000A446F
:1018D80013441B78D9B2FB79013B8F4AD35CDBB246
:1018E8001A46FFF735FDFB791846FFF775FFF860D4
:1018F800FB681B6843F08002FB681A60FB681B6882
:1019080023F01002FB681A60FB681B6823F02002B2
:10191800FB681A60FB681B6823F04002FB681A60CA
:10192800BB797E4AA2FB03235B08D8B20246FB6858
:10193800063253F82220BB79013B002B03F0010348
:10194800B8BF5B42DB00012101FA03F3DB4302EA83
:101958000301FB68821D43F82210BB796F4AA2FB82
:1019680003235B08D8B20246FB68063253F82220EC
:10197800BB79013B002B03F00103B8BF5B42DB00DE
:101988000133012101FA03F3DB4302EA0301FB6897
:10199800821D43F82210FB689F229A62BB88604A26
:1019A80082FB03129210DB17D31A1A46FB68DA621D
:1019B8007B885B4A82FB03129210DB17D21ABB7931
:1019C800013B1146FA680C339B0013445960BB79FC
:1019D800524AA2FB03235B08D8B20246FB680632D0
:1019E80053F82220BB79013B002B03F00103B8BF59
:1019F8005B42DB000333012101FA03F342EA0301EE
:101A0800FB68821D43F82210BB79444AA2FB0323DA
:101A18005B08D8B20246FB68063253F82220BB792D
:101A2800013B002B03F00103B8BF5B42DB0004332A
:101A3800012101FA03F3DB4302EA0301FB68821D7B
:101A480043F82210BB79354AA2FB03235B08D8B2BE
:101A58000246FB68063253F82220BB79013B002B73
:101A680003F00103B8BF5B42DB000533012101FA33
:101A780003F342EA0301FB68821D43F82210BB7995
:101A8800264AA2FB03235B08D8B20246FB6806324B
:101A980053F82220BB79013B002B03F00103B8BFA8
:101AA8005B42DB000633012101FA03F342EA03013A
:101AB800FB68821D43F82210FB681B6ABA79013A59
:101AC80092000132012101FA02F2D2431A40FB6866
:101AD8001A62FB681B6ABA79013A9200012101FA7D
:101AE80002F21A43FB681A62FB685B6C43F400421B
:101AF800FB685A64FB681B6843F00102FB681A60C4
:101B0800FB684FF0FF325A6200BF1437BD4690BDE4
:101B1800000000202000002040000020ABAAAAAA54
:101B28006766666680B584B000AF03460A46FB71F7
:101B38001346BB71FB795A1EBB79013B9949920048
:101B48000A4413441B78D8B2FB795A1EBB79013B6F
:101B5800954992000A4413441B78DBB202221946C5
:101B6800FFF7A2F9FB795A1EBB79013B8D49920018
:101B78000A4413441B78D8B2FB795A1EBB79013B3F
:101B8800894992000A4413441B78D9B2FB79013B76
:101B9800864AD35CDBB21A46FFF7DAFBFB791846B4
:101BA800FFF71AFEF860FB681B6843F08002FB68C9
:101BB8001A60FB681B6823F01002FB681A60FB6858
:101BC8001B6823F02002FB681A60FB681B6823F07F
:101BD8004002FB681A60BB79754AA2FB03235B08C5
:101BE800D8B20246FB68063253F82220BB79013B83
:101BF800002B03F00103B8BF5B42DB00012101FAAF
:101C080003F342EA0301FB68821D43F82210BB7903
:101C1800674AA2FB03235B08D8B20246FB68063278
:101C280053F82220BB79013B002B03F00103B8BF16
:101C38005B42DB000133012101FA03F3DB4302EAD3
:101C48000301FB68821D43F82210BB79584AA2FBA6
:101C580003235B08D8B20246FB68063253F82220F9
:101C6800BB79013B002B03F00103B8BF5B42DB00EB
:101C78000433012101FA03F342EA0301FB68821DE0
:101C880043F82210BB794A4AA2FB03235B08D8B267
:101C98000246FB68063253F82220BB79013B002B31
:101CA80003F00103B8BF5B42DB000533012101FAF1
:101CB80003F342EA0301FB68821D43F82210BB7953
:101CC8003B4AA2FB03235B08D8B20246FB680632F4
:101CD80053F82220BB79013B002B03F00103B8BF66
:101CE8005B42DB000633012101FA03F3DB4302EA1E
:101CF8000301FB68821D43F82210BB792C4AA2FB22
:101D080003235B08D8B20246FB68063253F8222048
:101D1800BB79013B002B03F00103B8BF5B42DB003A
:101D28000733012101FA03F3DB4302EA0301FB68ED
:101D3800821D43F82210FB6840F23F629A62FB68FA
:101D48004FF0FF32DA62FB681B6ABA79013A9200F7
:101D5800012101FA02F21A43FB681A62FB681B6A46
:101D6800BA79013A92000132012101FA02F2D24312
:101D78001A40FB681A62FB68DB68BA79012101FA2C
:101D880002F21A43FB68DA60FB681B6843F0010241
:101D9800FB681A60FB684FF0FF325A6200BF1037C9
:101DA800BD4680BD0000002020000020400000202B
:101DB800ABAAAAAA80B584B000AF03460A46FB7155
:101DC8001346BB71FB7901331846FFF705FDF86030
:101DD800FB799A00BB7913442E4AD35C002B1FD1A0
:101DE800BB79FA799100BA790A44F9680C339B00F7
:101DF8000B445B68284941F82230FB681B6ABA79B2
:101E080092000132012101FA02F21A43FB681A62B8
:101E1800FB799A00BB7913441E4A0121D15435E05D
:101E2800BB79FA799100BA790A44F9680C339B00B6
:101E38000B445B68194941F82230FB681B6ABA7980
:101E480092000132012101FA02F2D2431A40FB68E2
:101E58001A62FB799A00BB791344104A52F823108E
:101E6800FB799A00BB7913440B4A52F82320FB797B
:101E78009800BB7903448A1A094941F82320FB7961
:101E88009A00BB791344034A0021D15400BF10378C
:101E9800BD4680BD3001002050010020C401002053
:101EA800BC00002080B483B000AF03460A46FB7133
:101EB8001346BB71FB79013B9A00BB79013B134484
:101EC800044A52F8233018460C37BD465DF8047BA7
:101ED800704700BFBC00002080B500AF1F4B1B69D6
:101EE80003F00103002B0DD01D4B1B68002B02D003
:101EF8001B4B1B689847194B1B69184A23F00103B1
:101F0800136129E0174B1B6903F00203002B09D06A
:101F180000210620FFF74EFF124B1B69114A23F0E0
:101F2800020313610F4B1B6903F00103002B13D04D
:101F38000B4B9B69002B09D0094B9B699847094BB0
:101F48001B69084A23F00103136105E0054B1B696F
:101F5800044A23F00103136100BF80BD0000014063
:101F68009C0000200044014080B500AF1B4B1B695A
:101F780003F02003002B2FD1184B1B6903F04003FB
:101F8800002B29D1164B1B6903F00203002B09D043
:101F980000210720FFF70EFF114B1B69104A23F0A1
:101FA800020313610E4B1B6903F00103002B13D0CE
:101FB8000C4BDB69002B09D00A4BDB699847084BAF
:101FC8001B69074A23F00103136105E0044B1B69F1
:101FD800034A23F00103136100BF80BD00000140E4
:101FE800004801409C00002080B500AF214B1B69D0
:101FF80003F08003002B3AD11F4B1B6903F0020347
:10200800002B0AD000210520FFF7D4FE1A4B1B69CC
:10201800194A23F0020313610FE0174B1B6903F001
:102028000403002B09D001210520FFF7C3FE124B42
:102038001B69114A23F0040313610F4B1B6903F05A
:102048000103002B13D00D4B5B69002B09D00B4B00
:102058005B699847084B1B69074A23F00103136122
:1020680005E0054B1B69044A23F00103136100BF17
:1020780080BD00BF00000140004001409C000020DE
:1020880080B500AF1F4B1B6903F00203002B0AD079
:1020980000210020FFF78EFE1A4B1B69194A23F016
:1020A800020313612BE0174B1B6903F00403002B99
:1020B8000AD001210020FFF77DFE124B1B69114A4F
:1020C80023F0040313611AE00E4B1B6903F00803A5
:1020D800002B0AD002210020FFF76CFE094B1B6978
:1020E800084A23F00803136109E003210020FFF7E1
:1020F80061FE044B1B69034A23F01003136100BF00
:1021080080BD00BF0000014080B500AF4FF08043A4
:102118001B6903F00203002B0CD000210120FFF7FC
:1021280049FE4FF080431B694FF0804223F00203C1
:1021380013613AE04FF080431B6903F00403002B5E
:102148000CD001210120FFF735FE4FF080431B69B9
:102158004FF0804223F00403136126E04FF08043E0
:102168001B6903F00803002B0CD002210120FFF7A4
:1021780021FE4FF080431B694FF0804223F0080393
:10218800136112E04FF080431B6903F01003002B2A
:102198000BD003210120FFF70DFE4FF080431B6990
:1021A8004FF0804223F0100313614FF080431B6906
:1021B80003F00103002B17D00C4B5B68002B0BD0EE
:1021C8000A4B5B6898474FF080431B694FF0804289
:1021D80023F00103136107E04FF080431B694FF0C0
:1021E800804223F00103136100BF80BD9C000020E2
:1021F80080B500AF2F4B1B6903F00203002B0AD0F8
:1022080000210220FFF7D6FD2A4B1B69294A23F03B
:102218000203136131E0274B1B6903F00403002B11
:102228000AD001210220FFF7C5FD224B1B69214A74
:1022380023F00403136120E01E4B1B6903F008031D
:10224800002B0AD002210220FFF7B4FD194B1B69AD
:10225800184A23F0080313610FE0164B1B6903F0BB
:102268001003002B09D003210220FFF7A3FD114B17
:102278001B69104A23F0100313610E4B1B6903F00E
:102288000103002B13D00C4B9B68002B09D00A4B81
:102298009B689847074B1B69064A23F001031361A3
:1022A80005E0044B1B69034A23F00103136100BFD7
:1022B80080BD00BF000400409C00002080B500AF36
:1022C8002F4B1B6903F00203002B0AD000210320C7
:1022D800FFF770FD2A4B1B69294A23F0020313619B
:1022E80031E0274B1B6903F00403002B0AD00121BE
:1022F8000320FFF75FFD224B1B69214A23F00403EB
:10230800136120E01E4B1B6903F00803002B0AD061
:1023180002210320FFF74EFD194B1B69184A23F0D1
:10232800080313610FE0164B1B6903F01003002B21
:1023380009D003210320FFF73DFD114B1B69104A0B
:1023480023F0100313610E4B1B6903F00103002BEC
:1023580013D00C4BDB68002B09D00A4BDB6898477D
:10236800074B1B69064A23F00103136105E0044B80
:102378001B69034A23F00103136100BF80BD00BF3E
:10238800000800409C00002080B500AF2F4B1B695F
:1023980003F00203002B0AD000210420FFF70AFDF6
:1023A8002A4B1B69294A23F00203136131E0274BAA
:1023B8001B6903F00403002B0AD001210420FFF756
:1023C800F9FC224B1B69214A23F00403136120E026
:1023D8001E4B1B6903F00803002B0AD002210420BE
:1023E800FFF7E8FC194B1B69184A23F0080313612F
:1023F8000FE0164B1B6903F01003002B09D00321D3
:102408000420FFF7D7FC114B1B69104A23F0100377
:1024180013610E4B1B6903F00103002B13D00C4B07
:102428001B69002B09D00A4B1B699847074B1B698E
:10243800064A23F00103136105E0044B1B69034AB4
:1024480023F00103136100BF80BD00BF000C0040F2
:102458009C00002080B400AF1C4B40F283629A605D
:102468001A4B1A4A1B691361184AD3686FF30003A1
:10247800D360164AD36843F00403D360134AD36881
:1024880043F00803D360114AD36843F02003D360B4
:102498000E4AD3686FF38613D3600C4AD3686FF380
:1024A8008A23D360094AD3686FF34923D360074A64
:1024B800D3686FF30C33D360044AD3686FF3CF3318
:1024C800D36000BFBD465DF8047B70470010014033
:1024D80080B483B000AF0346FB71FB79062B12D0A2
:1024E800062B16DC012B02D0022B06D011E00C4A79
:1024F800D36843F40053D3600BE00A4AD36843F42B
:102508000053D36005E0084AD36843F40053D3600E
:1025180000BF00BF0C37BD465DF8047B704700BFA5
:1025280000100140004400400014014080B483B012
:1025380000AF0346FB71FB79062B12D0062B16DC85
:10254800012B02D0022B06D011E00C4AD3686FF39E
:102558004D33D3600BE00A4AD3686FF34D33D36031
:1025680005E0084AD3686FF34D33D36000BF00BF5E
:102578000C37BD465DF8047B704700BF0010014072
:10258800004400400014014080B584B000AF034609
:102598000A46FB711346BB71FB79184600F04EF8EA
:1025A800F86000BFFB681B6803F08003002BF9D0BC
:1025B800BA79FB685A6000BFFB681B6803F04003E8
:1025C800002BF9D000BF00BF1037BD4680BD80B5D5
:1025D80084B000AF03463960FB710023FB730BE046
:1025E800FB7B3A6813441A78FB7911461846FFF7C3
:1025F800CBFFFB7B0133FB73FB7B3A6813441B78EF
:10260800002BEDD100BF00BF1037BD4680BD80B59F
:1026180084B000AF03463960FB71FB79184600F0BF
:102628000DF8F860FB685B68DAB23B681A703B68C3
:102638001B7818461037BD4680BD000080B485B0B1
:1026480000AF0346FB710E4BFB60FB79062B0CD0E9
:10265800062B0DDC012B02D0022B03D008E0084B1F
:10266800FB6005E0074BFB6002E0074BFB6000BF27
:10267800FB6818461437BD465DF8047B704700BFF9
:1026880000100140004400400014014080B483B0B1
:1026980000AF7860044A7B68136000BF0C37BD4602
:1026A8005DF8047B704700BF3802002080B500AF9A
:1026B800034B00221A60034B1B68984700BF80BD7C
:1026C800001001403802002080B500AF034B002203
:1026D8001A60034B1B68984700BF80BD0044004048
:1026E8003C02002080B500AF034B00221A60034B68
:1026F8001B68984700BF80BD0014014040020020BD
:1027080080B582B000AF0023FB71FEF78DFFFEF7A6
:10271800A7FF4FF4FA70FEF7F5FF02210020FEF73D
:1027280031FF9C48FEF7AAF99A48FEF7B9F900214B
:102738000020FEF727FF04210320FEF723FF0222D3
:1027480009210020FEF7B0FB02220A210020FEF733
:10275800ABFB072209210020FEF7FAFD07220A2118
:102768000020FEF7F5FDFFF775FE0120FFF7B0FE2C
:102778008948FFF78BFF01210020FEF703FF0021A6
:102788000220FEF7FFFE0220FFF746F81C20FEF7A6
:10279800C3FE022202210120FEF7A6FA0021002032
:1027A800FEF7F0FE00210220FEF7ECFE0220FFF704
:1027B80033F81C20FEF7B0FE012202210020FEF7AC
:1027C80093FA00210020FEF7DDFE00210220FEF72B
:1027D800D9FE0220FFF720F81C20FEF79DFE0422F8
:1027E80002210220FEF780FA00210020FEF7CAFE2F
:1027F80000210220FEF7C6FE0220FFF70DF81C207C
:10280800FEF78AFE032202210320FEF76DFA6348D1
:10281800FEF76AF96148FEF702FA6148FEF764F9C3
:102828005F48FEF7FCF900210020FEF7ABFE01210E
:102838000220FEF7A7FE01210320FEF717FA522017
:10284800FEF72EFA2520FEF767FE5248FEF73AF902
:102858005448FEF769FA54490120FEF791FA5349A2
:102868000020FEF78DFA52490220FEF789FA5149F5
:102878000320FEF785FA504B1B78572B03D04F4B9C
:102888001B78012B1AD1484BD3E900014FF0000205
:102898004B4BFEF7D5F80346002B0FD0002000F075
:1028A80093F85220FEF7FCF9434B30221A70434B41
:1028B80000221A70434B52221A701DE03E4B1B78BF
:1028C800572B19D1384BD3E900014FF000023C4B8C
:1028D800FEF7CAF80346002B0ED0012000F074F86A
:1028E8005220FEF7DDF9344B30221A70334B0122A7
:1028F8001A70344B52221A702F4B1B78532B03D06B
:102908002E4B1B78022B25D1284BD3E900014FF021
:1029180000022B4BFEF794F80346002B0AD1244BF8
:10292800D3E900014FF00002254BFEF793F8034668
:10293800002B0FD0002000F047F85220FEF7B0F926
:102948001D4B30221A701D4B00221A701D4B52224B
:102958001A701EE0184B1B78532B7FF476AF134B7D
:10296800D3E900014FF00002154BFEF77DF803464E
:10297800002B0ED0022000F027F85220FEF790F925
:102988000D4B30221A700D4B02221A700D4B522239
:102998001A705AE7842B01080D2A0108942B0108A4
:1029A800AC2B01088C2B01084802002050020020A3
:1029B8005802002060020020450200204602002044
:1029C800000034404800002080B582B000AF0346C4
:1029D800FB71094B1A78FB7919460848FEF7BDF8D0
:1029E800054B1A78FB7919460548FEF7B6F800BF7B
:1029F8000837BD4680BD00BF49000020942B010860
:102A0800AC2B010880B500AF1C490120FFF7FFFD82
:102A18001A4B1B78312B0BD11948FEF741F82520AA
:102A2800FEF794FD0120FFF781FD00F02FF81EE06E
:102A3800124B1B78572B03D1124B57221A7016E0F2
:102A48000E4B1B78532B03D10E4B53221A700EE0FA
:102A58000A4B1B78412B03D10A4B41221A7006E01E
:102A6800064B1B784F2B02D1064B4F221A70064992
:102A78000120FFF7ACFD00BF80BD00BF440200206D
:102A8800842B010845020020802B010880B500AF87
:102A98000B210220FEF776FD014BBF221A60FEE7EC
:102AA800002C00400D488546AFF300800C480D49C6
:102AB8000D4A002302E0D458C4500433C4188C4291
:102AC800F9D30A4A0A4C002301E013600432A242F7
:102AD800FBD300F011F8FFF713FEFEE7000001201A
:102AE800000000204C000020CC2B010850000020E2
:102AF80068020020FEE7000070B50D4D0D4C641B08
:102B0800A4100026A64209D10B4D0C4C00F018F871
:102B1800641BA4100026A64205D170BD55F8043BDD
:102B280098470136EEE755F8043B98470136F2E737
:102B3800C42B0108C42B0108C42B0108C82B0108A9
:102B4800F8B500BFF8BC08BC9E467047F8B500BF92
:082B5800F8BC08BC9E46704762
:102B60000000010000000000000400000008000058
:102B7000000C00000040010000440100004801007A
:102B80000D0A0000020000000D000000000000001F
:102B900008000000010000000C000000010000001F
:102BA0000D00000004000000010000000100000012
:102BB0000E000000010000000F00000004000000F3
:042BC000020000000F
:042BC400BD01010846
:042BC8009901010866
:102BCC0000000000000100000000010101010101F2
:102BDC0000000000000000000101000001010000E5
:102BEC0008090A0B0F030203060700010607080970
:102BFC000001020302030203080808080909090975
:0C2C0C0001010202020303035250000009
:0400000508012AAD17
:00000001FF
