:020000040800F2
:100000000000012091110008E1110008E111000831
:10001000E1110008E1110008E111000800000000F2
:10002000000000000000000000000000E1110008D6
:10003000E111000800000000E11100080D0A0008AD
:1000400000000000E1110008E1110008E1110008C2
:10005000E1110008E11100086502000889020008AA
:10006000AD020008D1020008F5020008E111000805
:10007000E1110008E1110008E1110008E111000898
:10008000E1110008E1110008E11100080000000082
:10009000000000000000000000000000E111000866
:1000A000E1110008E1110008E1110008E111000868
:1000B000E1110008E1110008E1110008E111000858
:1000C000E1110008E1110008E1110008E111000848
:1000D000E1110008410D00085D0D0008000000005E
:1000E000E1110008E1110008E11100080000000022
:1000F000000000000000000000000000E111000806
:1001000000000000E1110008E1110008E111000801
:1001100000000000000000000000000000000000DF
:10012000E1110008E1110008E1110008E1110008E7
:10013000E1110008000000000000000000000000C5
:10014000000000000000000000000000E1110008B5
:10015000E1110008E1110008E1110008790D000823
:10016000E1110008E111000800000000000000009B
:10017000000000000000000000000000000000007F
:10018000000000000000000000000000000000006F
:04019000E111000871
:1001940010B5054C237833B9044B13B10448AFF3BD
:1001A40000800123237010BD040000200000000023
:1001B4002C12000808B5034B1BB103490348AFF3E5
:1001C400008008BD00000000080000202C12000878
:1001D40080B582B000AF78607B681B68D8B27B685A
:1001E4005B68DBB20122194600F094F800BF0837BF
:1001F400BD4680BD80B582B000AF78607B681B6867
:10020400D8B27B685B68DBB20122194600F0FAF8C9
:1002140000BF0837BD4680BD80B582B000AF7860AE
:100224007B681B68D8B27B685B68DBB20022194626
:1002340000F0E8F800BF0837BD4680BD80B582B045
:1002440000AF78607B681B68DAB27B685B68DBB2FE
:100254001946104600F0A8F900BF0837BD4680BD16
:1002640080B500AF054B1B689847054B5B69044A92
:1002740043F00103536100BF80BD00BF2000002094
:10028400003C014080B500AF054B1B689847054B07
:100294005B69044A43F00203536100BF80BD00BFA1
:1002A40024000020003C014080B500AF054B1B68D2
:1002B4009847054B5B69044A43F00403536100BF4C
:1002C40080BD00BF28000020003C014080B500AF85
:1002D400054B1B689847054B5B69044A43F00803C8
:1002E400536100BF80BD00BF2C000020003C0140D2
:1002F40080B500AF054B1B689847054B5B69044A02
:1003040043F01003536100BF80BD00BF30000020E4
:10031400003C014080B483B000AF0346FB710B4640
:10032400BB7113467B71FB79052B57D801A252F898
:1003340023F000BF5103000869030008810300088B
:1003440099030008B1030008C9030008274B1B6880
:100354007979BA79520001FA02F21146234A0B4321
:1003640013603CE0224B1B687979BA79520001FA98
:1003740002F211461E4A0B43136030E01D4B1B680A
:100384007979BA79520001FA02F21146194A0B43FB
:10039400136024E0184B1B687979BA79520001FA8A
:1003A40002F21146144A0B43136018E0134B1B6806
:1003B4007979BA79520001FA02F211460F4A0B43D5
:1003C40013600CE00E4B1B687979BA79520001FA7C
:1003D40002F211460A4A0B43136000E000BF00BF5B
:1003E4000C37BD465DF8047B704700BF0000024037
:1003F4000004024000080240000C024000100240C9
:10040400001C024080B483B000AF0346FB710B466E
:10041400BB7113467B717B79012B55D1FB79052B7D
:1004240000F2AC8001A252F823F000BF4904000896
:100434005F040008750400088B040008A104000888
:10044400B7040008524B5B69BA79012101FA02F240
:1004540011464F4A0B43536193E04E4B5B69BA79A3
:10046400012101FA02F211464A4A0B43536188E022
:10047400494B5B69BA79012101FA02F21146464AF5
:100484000B4353617DE0454B5B69BA79012101FA65
:1004940002F21146414A0B43536172E0404B5B69DF
:1004A400BA79012101FA02F211463D4A0B43536124
:1004B40067E03C4B5B69BA79012101FA02F211460B
:1004C400384A0B4353615CE0FB79052B58D801A2F1
:1004D40052F823F0F104000809050008210500087A
:1004E400390500085105000869050008284B5B69B7
:1004F400BA79012101FA02F2D2431146244A0B408F
:1005040053613EE0234B5B69BA79012101FA02F29F
:10051400D24311461F4A0B40536132E01E4B5B69C4
:10052400BA79012101FA02F2D24311461A4A0B4068
:10053400536126E0194B5B69BA79012101FA02F291
:10054400D2431146154A0B4053611AE0144B5B69C0
:10055400BA79012101FA02F2D2431146104A0B4042
:1005640053610EE00F4B5B69BA79012101FA02F283
:10057400D24311460B4A0B40536102E000BF00E036
:1005840000BF00BF0C37BD465DF8047B704700BF59
:10059400000002400004024000080240000C024037
:1005A40000100240001C024080B483B000AF034638
:1005B4000A46FB711346BB71FB79052B50D801A287
:1005C40052F823F0E1050008F70500080D060008BD
:1005D40023060008390600084F060008244B5B690F
:1005E400BA79012101FA02F21146214A4B405361C2
:1005F40037E0204B5B69BA79012101FA02F2114616
:100604001C4A4B4053612CE01B4B5B69BA790121B6
:1006140001FA02F21146184A4B40536121E0174B8C
:100624005B69BA79012101FA02F21146134A4B407F
:10063400536116E0124B5B69BA79012101FA02F2A7
:1006440011460F4A4B4053610BE00E4B5B69BA797C
:10065400012101FA02F211460A4A4B40536100E0BB
:1006640000BF00BF0C37BD465DF8047B704700BF78
:10067400000002400004024000080240000C024056
:1006840000100240001C024080B483B000AF034657
:10069400FB710B46BB7113467B71BB79072B5BD88F
:1006A400FB79052B00F2BE8001A252F823F000BFB3
:1006B400CD060008E5060008FD0600081507000839
:1006C4002D070008450700085B4B1B6A7979BA7946
:1006D400920001FA02F21146574A0B431362A4E056
:1006E400564B1B6A7979BA79920001FA02F21146E3
:1006F400524A0B43136298E0514B1B6A7979BA79D9
:10070400920001FA02F211464D4A0B4313628CE047
:100714004C4B1B6A7979BA79920001FA02F21146BC
:10072400484A0B43136280E0474B1B6A7979BA79D4
:10073400920001FA02F21146434A0B43136274E039
:10074400424B1B6A7979BA79920001FA02F2114696
:100754003E4A0B43136268E0FB79052B64D801A27F
:1007640052F823F0810700089D070008B907000824
:10077400D5070008F10700080D0800082E4B5B6A36
:100784007979BA7902F00702920001FA02F211466D
:10079400294A0B43536248E0284B5B6A7979BA795A
:1007A40002F00702920001FA02F21146234A0B43B7
:1007B40053623AE0224B5B6A7979BA7902F0070214
:1007C400920001FA02F211461D4A0B4353622CE0D7
:1007D4001C4B5B6A7979BA7902F00702920001FA3C
:1007E40002F21146174A0B4353621EE0164B5B6A32
:1007F4007979BA7902F00702920001FA02F21146FD
:10080400114A0B43536210E0104B5B6A7979BA7951
:1008140002F00702920001FA02F211460B4A0B435E
:10082400536202E000BF00E000BF00BF0C37BD46CA
:100834005DF8047B704700BF0000024000040240E2
:1008440000080240000C024000100240001C02405C
:1008540080B483B000AF03460A46FB711346BB71F4
:10086400FB79032B36D801A252F823F08108000843
:1008740097080008AD080008C3080008194B1B6856
:10088400BA79012101FA02F21146164A0B431360A8
:1008940021E0154B1B68BA79012101FA02F21146D5
:1008A400114A0B43136016E0104B1B68BA790121FF
:1008B40001FA02F211460D4A0B4313600BE00C4B94
:1008C4001B68BA79012101FA02F21146084A0B4366
:1008D400136000E000BF00BF0C37BD465DF8047B29
:1008E400704700BF3038024034380240403802407C
:1008F4004438024080B400AF0B4B1B680A4A43F0F3
:1009040001031360084B9B68074A23F001039360BB
:10091400054B9B68044A23F00203936000BFBD4665
:100924005DF8047B704700BF0038024080B400AF1C
:10093400054B1B68044A23F00403136000BFBD4643
:100944005DF8047B704700BF10E000E080B483B022
:1009540000AF7860124A7B685360114B00229A60A2
:100964000F4B1B680E4A43F00103136000BF0C4B8E
:100974001B6803F48033002BF9D0094B1B68084A29
:1009840023F001031360064B00225A60044B00223B
:100994009A6000BF0C37BD465DF8047B704700BF0A
:1009A40010E000E080B400AF084B1B68074A23F056
:1009B40001031360054B00225A60044B00229A6025
:1009C40000BFBD465DF8047B704700BF10E000E047
:1009D40080B582B000AF7860FFF7A8FF094B1B68B1
:1009E400084A23F0020313607B684FF4FA6202FBA7
:1009F40003F31846FFF7AAFFFFF7D4FF00BF083739
:100A0400BD4680BD10E000E080B582B000AF002399
:100A1400FB71144B1B78012B11D1134B1B68124A29
:100A240023F002031360104B1B680F4A23F00103E9
:100A340013600D4B00225A600B4B00229A600B4B43
:100A44001B68002B02D0094B1B689847064B1B6898
:100A54001B0CDBB203F00103FB7100BF0837BD467A
:100A640080BD00BF3800002010E000E0340000200A
:100A740080B400AF514B40F283629A604F4B4F4AAF
:100A84001B6913614D4AD3686FF30003D3604B4A6B
:100A9400D36843F00403D360484AD36843F008039F
:100AA400D360464AD3686FF34513D360434AD3688F
:100AB4006FF38613D360414AD3686FF38A23D360FC
:100AC4003E4AD3686FF34923D3603C4AD3686FF33B
:100AD4000C33D360394AD3686FF3CF33D360384BC8
:100AE40040F283629A60364B354A1B691361344A7B
:100AF400D3686FF30003D360314AD36843F004032F
:100B0400D3602F4AD36843F00803D3602C4AD368D8
:100B14006FF34513D3602A4AD3686FF38613D36007
:100B2400274AD3686FF38A23D360254AD3686FF3C7
:100B34004923D360224AD3686FF30C33D360204A2D
:100B4400D3686FF3CF33D3601E4B40F283629A6055
:100B54001C4B1C4A1B6913611A4AD3686FF30003C8
:100B6400D360184AD36843F00403D360154AD368AA
:100B740043F00803D360134AD3686FF34513D3607B
:100B8400104AD3686FF38613D3600E4AD3686FF3A9
:100B94008A23D3600B4AD3686FF34923D360094A8D
:100BA400D3686FF30C33D360064AD3686FF3CF3343
:100BB400D36000BFBD465DF8047B70470010014060
:100BC400004400400014014080B483B000AF0346E9
:100BD400FB71FB79062B12D0062B16DC012B02D0FD
:100BE400022B06D011E00C4AD36843F40053D360BF
:100BF4000BE00A4AD36843F40053D36005E0084A83
:100C0400D36843F40053D36000BF00BF0C37BD4624
:100C14005DF8047B704700BF0010014000440040B1
:100C24000014014080B584B000AF03460A46FB714E
:100C34001346BB71FB79184600F058F8F86000BF02
:100C4400FB681B6803F08003002BF9D0BA79FB68BA
:100C54005A6000BFFB681B6803F04003002BF9D007
:100C640000BF00BF1037BD4680BD80B584B000AF63
:100C740003463960FB710023FB730BE0FB7B3A688E
:100C840013441A78FB7911461846FFF7CBFFFB7B18
:100C94000133FB73FB7B3A6813441B78002BEDD1C3
:100CA40000BF00BF1037BD4680BD80B584B000AF23
:100CB40003463960FB71FB79184600F017F8B860F9
:100CC4000123FB73BB681B685B0903F00103012B61
:100CD40005D1BB685B68DAB23B681A7001E0002397
:100CE400FB73FB7B18461037BD4680BD80B485B0CE
:100CF40000AF0346FB710E4BFB60FB79062B0CD057
:100D0400062B0DDC012B02D0022B03D008E0084B8C
:100D1400FB6005E0074BFB6002E0074BFB6000BF94
:100D2400FB6818461437BD465DF8047B704700BF66
:100D340000100140004400400014014080B500AFA1
:100D4400034B00221A60034B1B68984700BF80BD09
:100D5400001001403C00002080B500AF034B00228E
:100D64001A60034B1B68984700BF80BD00440040D5
:100D74004000002080B500AF034B00221A60034BF3
:100D84001B68984700BF80BD001401404400002048
:100D940080B582B000AFFFF7ADFDFFF7C7FD40F2AD
:100DA400DC50FFF715FE00210020FFF751FD022162
:100DB4000020FFF74DFD04210320FFF749FD022227
:100DC40009210020FFF7A6FA02220A210020FFF7DA
:100DD400A1FA072209210020FFF756FC07220A2165
:100DE4000020FFF751FC11210220FFF731FD022200
:100DF40002210020FFF78EFA022203210020FFF7D0
:100E040089FA072202210020FFF73EFC0722032172
:100E14000020FFF739FC05210320FFF719FD02220A
:100E24000B210020FFF776FA02220C210020FFF7A5
:100E340071FA08220B210020FFF726FC08220C215E
:100E44000020FFF721FCFFF713FE0120FFF7BCFE93
:100E54000220FFF7B9FE0620FFF7B6FEFFF766FD96
:100E6400A148FFF7B5F9A148FFF7B2F9A048FFF789
:100E7400AFF99D48FFF7D0F90023FB710023BB7144
:100E840000237B719B490120FFF70FFF0346FB7191
:100E940099490220FFF709FF0346BB71974B1B7862
:100EA400DBB21A46964B134419460620FFF7FDFEA3
:100EB40003467B717B79012B40F0C3808F4B1B78F9
:100EC400DBB21A468E4B9B5CDBB20A2B40F0B2803D
:100ED4008C4B1B78DBB2012B61D1894B1B78DBB2C5
:100EE400312B09D1884B01221A70864B00221A70CB
:100EF4007E48FFF77FF952E0814B1B78DBB2322B3F
:100F040006D1814B02221A707E4B00221A7046E0F1
:100F14007B4B1B78DBB2572B06D17B4B01221A701B
:100F2400784B00221A703AE0754B1B78DBB2532BD6
:100F340006D1754B01221A70724B00221A702EE0F2
:100F44006F4B1B78DBB2412B06D16F4B01221A7019
:100F54006C4B00221A7022E0694B1B78DBB24F2BDA
:100F640006D1694B01221A70664B00221A7016E0F2
:100F7400634B1B78DBB2352B06D1634B02221A700C
:100F8400604B00221A700AE05D4B1B78DBB2362BF3
:100F940005D15D4B02221A705A4B00221A70574B2E
:100FA4001B78DBB20133564A0021D154564B1B78CF
:100FB400DBB2012B04D0544B1B78DBB2022B40D1A3
:100FC400514B1B78DBB24E491846FFF74EFE48489A
:100FD400FFF710F94448FFF731F9484B00221A7023
:100FE400484B1B78DBB2002B2BD1454B1B78DBB273
:100FF400572B18D0424B1B78DBB2412B13D0404BFC
:101004001B78DBB2532B0ED03D4B1B78DBB24F2B3E
:1010140009D03B4B1B78DBB2362B04D0384B1B7802
:10102400DBB2352B0DD1374B01221A70364B00221F
:101034001A7006E0314B1B78DBB20133DAB22F4B66
:101044001A70FB79012B37D12A4B1B78DBB2422B68
:1010540004D142210620FFF7E5FD2AE0254B1B7849
:10106400DBB24B2B04D129490620FFF7FEFD20E01B
:10107400204B1B78DBB24E2B04D14E210620FFF708
:10108400D1FD16E01B4B1B78DBB2442B06D1442167
:101094000620FFF7C7FD00F065F80AE0154B1B7842
:1010A400DBB2462B05D146210620FFF7BBFD00F03D
:1010B40059F80D48FFF7C2F8BB79012B7FF4E2AE73
:1010C4000D4B1B78DBB2422B04D142210620FFF7E3
:1010D400A9FD3EE0084B1B78DBB24B2B18D10B4922
:1010E4000620FFF7C2FD34E0581200084812000839
:1010F40050120008770000207800002075000020BE
:10110400480000200000002076000020441200085F
:10111400124B1B78DBB24E2B04D14E210620FFF775
:1011240081FD16E00D4B1B78DBB2442B06D1442124
:101134000620FFF777FD00F015F80AE0074B1B784F
:10114400DBB2462B05D146210620FFF76BFD00F0EC
:1011540009F80348FFF772F894E600BF780000200E
:101164005812000880B500AF054B01221A70054BD8
:1011740000221A700448FFF74FF800BF80BD00BF7B
:101184000000002076000020581200080D48854613
:10119400AFF300800C480D490D4A002302E0D458F7
:1011A400C4500433C4188C42F9D30A4A0A4C0023AD
:1011B40001E013600432A242FBD300F011F8FFF700
:1011C400E7FDFEE7000001200000002004000020ED
:1011D40068120008040000207C000020FEE70000E4
:1011E40070B50D4D0D4C641BA4100026A64209D108
:1011F4000B4D0C4C00F018F8641BA4100026A642FA
:1012040005D170BD55F8043B98470136EEE755F813
:10121400043B98470136F2E76012000860120008A8
:101224006012000864120008F8B500BFF8BC08BCDE
:101234009E467047F8B500BFF8BC08BC9E46704790
:101244006F6B0000000000000000000000000000C0
:0C12540001000000020000000D0000007E
:04126000B9010008C8
:0412640095010008E8
:041268000100000081
:04000005080011914D
:00000001FF
