:020000040800F2
:10000000000001208D0F0008DD0F0008DD0F000843
:10001000DD0F0008DD0F0008DD0F00080000000004
:10002000000000000000000000000000DD0F0008DC
:10003000DD0F000800000000DD0F00082D0900089A
:1000400000000000DD0F0008DD0F0008DD0F0008D4
:10005000DD0F0008DD0F00084102000865020008FE
:1000600089020008AD020008D1020008DD0F000877
:10007000DD0F0008DD0F0008DD0F0008DD0F0008B0
:10008000DD0F0008DD0F0008DD0F00080000000094
:10009000000000000000000000000000DD0F00086C
:1000A000DD0F0008DD0F0008DD0F0008DD0F000880
:1000B000DD0F0008DD0F0008DD0F0008DD0F000870
:1000C000DD0F0008DD0F0008DD0F0008DD0F000860
:1000D000DD0F0008610C00087D0C00080000000026
:1000E000DD0F0008DD0F0008DD0F00080000000034
:1000F000000000000000000000000000DD0F00080C
:1001000000000000DD0F0008DD0F0008DD0F000813
:1001100000000000000000000000000000000000DF
:10012000DD0F0008DD0F0008DD0F0008DD0F0008FF
:10013000DD0F0008000000000000000000000000CB
:10014000000000000000000000000000DD0F0008BB
:10015000DD0F0008DD0F0008DD0F0008990C000816
:10016000DD0F0008DD0F00080000000000000000A7
:10017000000000000000000000000000000000007F
:10018000000000000000000000000000000000006F
:04019000DD0F000877
:1001940010B5054C237833B9044B13B10448AFF3BD
:1001A40000800123237010BD040000200000000023
:1001B4002810000808B5034B1BB103490348AFF3EB
:1001C400008008BD0000000008000020281000087E
:1001D40080B582B000AF78607B681B68D8B27B685A
:1001E4005B68DBB20122194600F082F800BF0837D1
:1001F400BD4680BD80B582B000AF78607B681B6867
:10020400D8B27B685B68DBB20022194600F0E8F8DC
:1002140000BF0837BD4680BD80B582B000AF7860AE
:100224007B681B68DAB27B685B68DBB219461046F0
:1002340000F0A8F900BF0837BD4680BD80B500AF07
:10024400054B1B689847054B5B69044A43F001035F
:10025400536100BF80BD00BF20000020003C01406E
:1002640080B500AF054B1B689847054B5B69044A92
:1002740043F00203536100BF80BD00BF240000208F
:10028400003C014080B500AF054B1B689847054B07
:100294005B69044A43F00403536100BF80BD00BF9F
:1002A40028000020003C014080B500AF054B1B68CE
:1002B4009847054B5B69044A43F00803536100BF48
:1002C40080BD00BF2C000020003C014080B500AF81
:1002D400054B1B689847054B5B69044A43F01003C0
:1002E400536100BF80BD00BF30000020003C0140CE
:1002F40080B483B000AF0346FB710B46BB71134659
:100304007B71FB79052B57D801A252F823F000BF6B
:100314002D030008450300085D0300087503000869
:100324008D030008A5030008274B1B687979BA7967
:10033400520001FA02F21146234A0B4313603CE0D7
:10034400224B1B687979BA79520001FA02F21146FC
:100354001E4A0B43136030E01D4B1B687979BA7950
:10036400520001FA02F21146194A0B43136024E0C9
:10037400184B1B687979BA79520001FA02F21146D6
:10038400144A0B43136018E0134B1B687979BA794C
:10039400520001FA02F211460F4A0B4313600CE0BB
:1003A4000E4B1B687979BA79520001FA02F21146B0
:1003B4000A4A0B43136000E000BF00BF0C37BD4680
:1003C4005DF8047B704700BF000002400004024057
:1003D40000080240000C024000100240001C0240D1
:1003E40080B483B000AF0346FB710B46BB71134668
:1003F4007B717B79012B55D1FB79052B00F2AC8005
:1004040001A252F823F000BF250400083B040008B1
:1004140051040008670400087D04000893040008E0
:10042400524B5B69BA79012101FA02F211464F4A33
:100434000B43536193E04E4B5B69BA79012101FA96
:1004440002F211464A4A0B43536188E0494B5B6907
:10045400BA79012101FA02F21146464A0B4353616B
:100464007DE0454B5B69BA79012101FA02F211463C
:10047400414A0B43536172E0404B5B69BA790121F5
:1004840001FA02F211463D4A0B43536167E03C4BCB
:100494005B69BA79012101FA02F21146384A0B4329
:1004A40053615CE0FB79052B58D801A252F823F084
:1004B400CD040008E5040008FD0400081505000843
:1004C4002D05000845050008284B5B69BA79012110
:1004D40001FA02F2D2431146244A0B4053613EE032
:1004E400234B5B69BA79012101FA02F2D243114626
:1004F4001F4A0B40536132E01E4B5B69BA790121FC
:1005040001FA02F2D24311461A4A0B40536126E023
:10051400194B5B69BA79012101FA02F2D2431146FF
:10052400154A0B4053611AE0144B5B69BA790121F7
:1005340001FA02F2D2431146104A0B4053610EE015
:100544000F4B5B69BA79012101FA02F2D2431146D9
:100554000B4A0B40536102E000BF00E000BF00BF44
:100564000C37BD465DF8047B704700BF00000240B5
:100574000004024000080240000C02400010024047
:10058400001C024080B483B000AF03460A46FB71EE
:100594001346BB71FB79052B50D801A252F823F006
:1005A400BD050008D3050008E9050008FF0500089B
:1005B400150600082B060008244B5B69BA79012153
:1005C40001FA02F21146214A4B40536137E0204BB5
:1005D4005B69BA79012101FA02F211461C4A4B40C7
:1005E40053612CE01B4B5B69BA79012101FA02F2D9
:1005F4001146184A4B40536121E0174B5B69BA79A5
:10060400012101FA02F21146134A4B40536116E0EC
:10061400124B5B69BA79012101FA02F211460F4AC1
:100624004B4053610BE00E4B5B69BA79012101FA2F
:1006340002F211460A4A4B40536100E000BF00BF7A
:100644000C37BD465DF8047B704700BF00000240D4
:100654000004024000080240000C02400010024066
:10066400001C024080B483B000AF0346FB710B460C
:10067400BB7113467B71BB79072B5BD8FB79052BC8
:1006840000F2BE8001A252F823F000BFA9060008C0
:10069400C1060008D9060008F10600080907000889
:1006A400210700085B4B1B6A7979BA79920001FA39
:1006B40002F21146574A0B431362A4E0564B1B6ADD
:1006C4007979BA79920001FA02F21146524A0B433F
:1006D400136298E0514B1B6A7979BA79920001FA56
:1006E40002F211464D4A0B4313628CE04C4B1B6AD9
:1006F4007979BA79920001FA02F21146484A0B4319
:10070400136280E0474B1B6A7979BA79920001FA47
:1007140002F21146434A0B43136274E0424B1B6AD4
:100724007979BA79920001FA02F211463E4A0B43F2
:10073400136268E0FB79052B64D801A252F823F018
:100744005D0700087907000895070008B10700084D
:10075400CD070008E90700082E4B5B6A7979BA795E
:1007640002F00702920001FA02F21146294A0B43F1
:10077400536248E0284B5B6A7979BA7902F0070240
:10078400920001FA02F21146234A0B4353623AE003
:10079400224B5B6A7979BA7902F00702920001FA76
:1007A40002F211461D4A0B4353622CE01C4B5B6A58
:1007B4007979BA7902F00702920001FA02F211463D
:1007C400174A0B4353621EE0164B5B6A7979BA7978
:1007D40002F00702920001FA02F21146114A0B4399
:1007E400536210E0104B5B6A7979BA7902F0070220
:1007F400920001FA02F211460B4A0B43536202E0E3
:1008040000BF00E000BF00BF0C37BD465DF8047BAD
:10081400704700BF0000024000040240000802408C
:10082400000C024000100240001C024080B483B05F
:1008340000AF03460A46FB711346BB71FB79032BD9
:1008440036D801A252F823F05D08000873080008A6
:10085400890800089F080008194B1B68BA79012110
:1008640001FA02F21146164A0B43136021E0154BBC
:100874001B68BA79012101FA02F21146114A0B43AD
:10088400136016E0104B1B68BA79012101FA02F2D9
:1008940011460D4A0B4313600BE00C4B1B68BA79ED
:1008A400012101FA02F21146084A0B43136000E0E9
:1008B40000BF00BF0C37BD465DF8047B704700BF26
:1008C4003038024034380240403802404438024054
:1008D40080B400AF0B4B1B680A4A43F0010313605A
:1008E400084B9B68074A23F001039360054B9B6800
:1008F400044A23F00203936000BFBD465DF8047B05
:10090400704700BF0038024080B400AF054B1B683D
:10091400044A23F00403136000BFBD465DF8047B62
:10092400704700BF10E000E080B582B000AF002344
:10093400FB71144B1B78012B11D1134B1B68124A0A
:1009440023F002031360104B1B680F4A23F00103CA
:1009540013600D4B00225A600B4B00229A600B4B24
:100964001B68002B02D0094B1B689847064B1B6879
:100974001B0CDBB203F00103FB7100BF0837BD465B
:1009840080BD00BF3800002010E000E034000020EB
:1009940080B400AF514B40F283629A604F4B4F4A90
:1009A4001B6913614D4AD3686FF30003D3604B4A4C
:1009B400D36843F00403D360484AD36843F0080380
:1009C400D360464AD3686FF34513D360434AD36870
:1009D4006FF38613D360414AD3686FF38A23D360DD
:1009E4003E4AD3686FF34923D3603C4AD3686FF31C
:1009F4000C33D360394AD3686FF3CF33D360384BA9
:100A040040F283629A60364B354A1B691361344A5B
:100A1400D3686FF30003D360314AD36843F004030F
:100A2400D3602F4AD36843F00803D3602C4AD368B9
:100A34006FF34513D3602A4AD3686FF38613D360E8
:100A4400274AD3686FF38A23D360254AD3686FF3A8
:100A54004923D360224AD3686FF30C33D360204A0E
:100A6400D3686FF3CF33D3601E4B40F283629A6036
:100A74001C4B1C4A1B6913611A4AD3686FF30003A9
:100A8400D360184AD36843F00403D360154AD3688B
:100A940043F00803D360134AD3686FF34513D3605C
:100AA400104AD3686FF38613D3600E4AD3686FF38A
:100AB4008A23D3600B4AD3686FF34923D360094A6E
:100AC400D3686FF30C33D360064AD3686FF3CF3324
:100AD400D36000BFBD465DF8047B70470010014041
:100AE400004400400014014080B483B000AF0346CA
:100AF400FB71FB79062B12D0062B16DC012B02D0DE
:100B0400022B06D011E00C4AD36843F40053D3609F
:100B14000BE00A4AD36843F40053D36005E0084A63
:100B2400D36843F40053D36000BF00BF0C37BD4605
:100B34005DF8047B704700BF001001400044004092
:100B44000014014080B584B000AF03460A46FB712F
:100B54001346BB71FB79184600F058F8F86000BFE3
:100B6400FB681B6803F08003002BF9D0BA79FB689B
:100B74005A6000BFFB681B6803F04003002BF9D0E8
:100B840000BF00BF1037BD4680BD80B584B000AF44
:100B940003463960FB710023FB730BE0FB7B3A686F
:100BA40013441A78FB7911461846FFF7CBFFFB7BF9
:100BB4000133FB73FB7B3A6813441B78002BEDD1A4
:100BC40000BF00BF1037BD4680BD80B584B000AF04
:100BD40003463960FB71FB79184600F017F8B860DA
:100BE4000123FB73BB681B685B0903F00103012B42
:100BF40005D1BB685B68DAB23B681A7001E0002378
:100C0400FB73FB7B18461037BD4680BD80B485B0AE
:100C140000AF0346FB710E4BFB60FB79062B0CD037
:100C2400062B0DDC012B02D0022B03D008E0084B6D
:100C3400FB6005E0074BFB6002E0074BFB6000BF75
:100C4400FB6818461437BD465DF8047B704700BF47
:100C540000100140004400400014014080B500AF82
:100C6400034B00221A60034B1B68984700BF80BDEA
:100C7400001001403C00002080B500AF034B00226F
:100C84001A60034B1B68984700BF80BD00440040B6
:100C94004000002080B500AF034B00221A60034BD4
:100CA4001B68984700BF80BD001401404400002029
:100CB40080B582B000AFFFF70BFE00210020FFF7E4
:100CC400B5FD02210020FFF7B1FD04210320FFF749
:100CD400ADFD022209210020FFF70AFB02220A21AE
:100CE4000020FFF705FB072209210020FFF7BAFCCB
:100CF40007220A210020FFF7B5FC11210220FFF78B
:100D040095FD022202210020FFF7F2FA02220321BC
:100D14000020FFF7EDFA072202210020FFF7A2FCD2
:100D2400072203210020FFF79DFC05210320FFF784
:100D34007DFD02220B210020FFF7DAFA02220C21AA
:100D44000020FFF7D5FA08220B210020FFF78AFCC8
:100D540008220C210020FFF785FCFFF719FE012073
:100D6400FFF7C2FE0220FFF7BFFE0620FFF7BCFE1E
:100D7400FFF7CAFD7248FFF72BFA7148FFF73AFAFA
:100D84000023FB710023BB7100237B716D4901209B
:100D9400FFF71BFF0346FB716B490220FFF715FFAA
:100DA4000346BB71694B1B78DBB21A46684B13448C
:100DB40019460620FFF709FF03467B717B79012B57
:100DC4004AD1624B1B78DBB21A46614B9B5CDBB2A7
:100DD4000A2B3AD15F4B1B78DBB2012B16D15C4B4B
:100DE4001B78DBB2312B06D15B4B01221A70594BB5
:100DF40000221A700AE0564B1B78DBB2322B05D165
:100E0400554B02221A70534B00221A704F4B1B7819
:100E1400DBB201334E4A0021D1544F4B1B78DBB275
:100E2400012B04D04C4B1B78DBB2022B06D14A4B6E
:100E34001B78DBB246491846FFF7A7FE4048FFF788
:100E4400EBF9424B00221A7006E0404B1B78DBB2F0
:100E54000133DAB23D4B1A70FB79012B34D1394B93
:100E64001B78DBB2422B04D142210620FFF76AFE35
:100E74002AE0344B1B78DBB24B2B04D137490620D4
:100E8400FFF783FE20E02F4B1B78DBB24E2B04D1FF
:100E94004E210620FFF756FE16E02A4B1B78DBB2E4
:100EA400442B06D144210620FFF74CFE00F058F8ED
:100EB4000AE0244B1B78DBB2462B05D146210620E1
:100EC400FFF740FE00F04CF8BB79012B7FF45EAFD6
:100ED4001D4B1B78DBB2422B04D142210620FFF7C5
:100EE40031FE53E7184B1B78DBB24B2B04D11B4963
:100EF4000620FFF74AFE49E7134B1B78DBB24E2B63
:100F040004D14E210620FFF71DFE3FE70E4B1B7850
:100F1400DBB2442B06D144210620FFF713FE00F078
:100F24001FF833E7084B1B78DBB2462B7FF42EAF58
:100F340046210620FFF706FE00F012F826E700BF60
:100F4400441000087700002078000020750000207D
:100F54004800002000000020760000204010000817
:100F640080B500AF054B01221A70054B00221A70A0
:100F74000448FFF73FF900BF80BD00BF0000002018
:100F840076000020441000080D488546AFF3008029
:100F94000C480D490D4A002302E0D458C4500433D0
:100FA400C4188C42F9D30A4A0A4C002301E01360A6
:100FB4000432A242FBD300F011F8FFF779FEFEE7FA
:100FC400000001200000002004000020541000084C
:100FD400040000207C000020FEE7000070B50D4DE9
:100FE4000D4C641BA4100026A64209D10B4D0C4CD9
:100FF40000F018F8641BA4100026A64205D170BDA9
:1010040055F8043B98470136EEE755F8043B9847FA
:101014000136F2E74C1000084C1000084C10000890
:1010240050100008F8B500BFF8BC08BC9E467047D5
:0C103400F8B500BFF8BC08BC9E46704731
:0C1040006F6B0000020000000D000000BB
:04104C00B9010008DE
:0410500095010008FE
:041054000100000097
:0400000508000F8D53
:00000001FF
