:020000040800F2
:100000000000012075130008C5130008C51300087F
:10001000C5130008C5130008C51300080000000040
:10002000000000000000000000000000C5130008F0
:10003000C513000800000000C51300088D0D00085E
:1000400000000000C5130008C5130008C513000810
:10005000C5130008C5130008A1050008C505000860
:10006000E90500080D06000831060008C513000860
:10007000C5130008C5130008C5130008C513000800
:10008000C5130008C5130008C513000800000000D0
:10009000000000000000000000000000C513000880
:1000A000C5130008C5130008C5130008C5130008D0
:1000B000C5130008C5130008C5130008C5130008C0
:1000C000C5130008C5130008C5130008C5130008B0
:1000D000C5130008011000081D10000800000000F2
:1000E000C5130008C5130008C51300080000000070
:1000F000000000000000000000000000C513000820
:1001000000000000C5130008C5130008C51300084F
:1001100000000000000000000000000000000000DF
:10012000C5130008C5130008C5130008C51300084F
:10013000C5130008000000000000000000000000DF
:10014000000000000000000000000000C5130008CF
:10015000C5130008C5130008C513000839100008AE
:10016000C5130008C51300080000000000000000CF
:10017000000000000000000000000000000000007F
:10018000000000000000000000000000000000006F
:04019000C51300088B
:1001940010B5054C237833B9044B13B10448AFF3BD
:1001A40000800123237010BD08000020000000001F
:1001B4001014000808B5034B1BB103490348AFF3FF
:1001C400008008BD000000000C000020101400088E
:1001D40080B582B000AF074B074A1A60074B1B6813
:1001E4007B607B683B603B68984700BF0837BD462F
:1001F40080BD00BF08ED00E0000001080400010814
:1002040080B582B000AF074B074A1A60074B1B68E2
:100214007B607B683B603B68984700BF0837BD46FE
:1002240080BD00BF08ED00E00000020804000208E1
:1002340080B485B000AF0346FB710023FB73FB79E8
:100244002F2B06D9FB79392B03D8FB79303BFB7371
:1002540008E0FB79402B05D9FB79462B02D8FB79C2
:10026400373BFB73FB7B18461437BD465DF8047BB4
:100274007047000080B582B000AF78607B680833B7
:100284001B78303B052B32D801A252F823F000BF73
:10029400AD020008F3020008F3020008F3020008AC
:1002A400B5020008EB020008786800F035F821E098
:1002B400124B1B68B3F1FF3F03D1114B114A1A6073
:1002C40017E00E4B1B68104A934203D10C4B0F4AA4
:1002D4001A600EE0094B1B680D4A934209D1084B82
:1002E400084A1A6005E00B4B01221A7002E000BFB5
:1002F40000E000BF00BF0837BD4680BD00C0000855
:100304002400002000000108AAAAFFFF0000020840
:10031400BBBBFFFFF000002080B586B000AF786063
:1003240000233B617B6801331B781846FFF780FF8D
:100334000346FB737B6802331B781846FFF778FF8C
:100344000346BB73FB7B1B015AB297F90E30134370
:100354005BB27B737B6803331B781846FFF768FF37
:1003640003463B737B6804331B781846FFF760FF32
:100374000346FB757B6805331B781846FFF758FF67
:100384000346FB727B6806331B781846FFF750FF61
:100394000346BB723B691B0C1B043B613B7B1B0389
:1003A4001A463D4B1B681343FA7D12021343FA7A33
:1003B40012011A43BB7A13433B610023BB7557E018
:1003C400BB7D9B0009337A6813441B781846FFF7FA
:1003D4002FFF03463B73BB7D9B000A337A681344AB
:1003E4001B781846FFF724FF0346FB75BB7D9B0073
:1003F4000B337A6813441B781846FFF719FF03463A
:10040400FB72BB7D9B000C337A6813441B7818463F
:10041400FFF70EFF0346BB723B7B002B0FD1FB7D26
:10042400012B0CD1FB7A002B09D1BB7A082B06D106
:100434001A4B1B681A4A934201D10223FB75FB7ABB
:100444001B031AB2BB7A1B021BB213431AB23B7BC7
:100454001B011BB213431AB2FB7D1BB213431AB226
:10046400BB7D91B20F4A22F81310BB7D0133BB75DB
:100474007B7B5B08DBB2BA7D9A42A1D37B7B5B08B2
:10048400DBB29BB21A460749386900F035F900BF60
:100494001837BD4680BD00BF2400002000C00008FE
:1004A400AAAAFFFF2800002090B589B000AF7860A9
:1004B4000023FB750023BB7500237B7500233B756C
:1004C4000023FB7700233B617B6801331B781846CC
:1004D400FFF7AEFE0346FB757B6802331B781846B4
:1004E400FFF7A6FE0346BB75FB7D1B015AB297F9C5
:1004F400163013435BB27B757B7D0433DBB25B0048
:100504003B750123BB6119E0BB697A6813441B780E
:100514001846FFF78DFE03461C01BB6901337A6858
:1005240013441B781846FFF783FE03462343DAB2CD
:10053400FB7F1344FB77BB690233BB613B7DBA6924
:100544009A42E1DBFB7F5B42FB773B7D01337A68B8
:1005540013441B781846FFF76BFE0346FB603B7D94
:1005640002337A6813441B781846FFF761FE03468A
:10057400BB60FB681B01BA6813433B613B69DAB299
:10058400FB7F9A4202D10123BB7701E00023BB77B2
:10059400BB7F18462437BD4690BD000080B500AF30
:1005A400054B1B689847054B5B69044A43F00103FC
:1005B400536100BF80BD00BFF4000020003C014037
:1005C40080B500AF054B1B689847054B5B69044A2F
:1005D40043F00203536100BF80BD00BFF800002058
:1005E400003C014080B500AF054B1B689847054BA4
:1005F4005B69044A43F00403536100BF80BD00BF3C
:10060400FC000020003C014080B500AF054B1B6896
:100614009847054B5B69044A43F00803536100BFE4
:1006240080BD00BF00010020003C014080B500AF48
:10063400054B1B689847054B5B69044A43F010035C
:10064400536100BF80BD00BF04010020003C014095
:1006540080B483B000AF0346FB7100BF234BDB685B
:100664001B0C03F00103012BF8D0204B1B69DB0F9B
:1006740003F00103012B05D11C4B1D4A5A601B4B8F
:100684001C4A5A60194B1B69184A23F078031361FA
:10069400164B1B69FA79D2001146144A0B431361B5
:1006A400124B1B69114A43F0020313610F4B1B6980
:1006B4000E4A43F48033136100BF0C4BDB681B0C00
:1006C40003F00103012BF8D0084BDB68074A43F021
:1006D4000103D360054B1B69044A23F00203136131
:1006E40000BF0C37BD465DF8047B7047003C0240F8
:1006F40023016745AB89EFCD80B487B000AFF860C4
:10070400B9601346FB8000BF294BDB681B0C03F068
:100714000103012BF8D0264B1B69DB0F03F0010307
:10072400012B05D1224B234A5A60214B224A5A609D
:100734001F4B1B691E4A23F4407313611C4B1B6936
:100744001B4A43F480731361194B1B69184A43F025
:10075400010313610023FB821AE0FB8A5B00BA6881
:100764001A44FB6812881A80FB680233FB6000BFDE
:100774000F4BDB681B0C03F00103012BF8D00C4B6F
:10078400DB680B4A43F00103D360FB8A0133FB822D
:10079400FA8AFB889A42E0D3054B1B69044A23F08A
:1007A4000103136100BF1C37BD465DF8047B70472D
:1007B400003C024023016745AB89EFCD80B483B090
:1007C40000AF0346FB710B46BB7113467B71FB798B
:1007D400052B57D801A252F823F000BFF9070008EF
:1007E40011080008290800084108000859080008F1
:1007F40071080008274B1B687979BA79520001FA0D
:1008040002F21146234A0B4313603CE0224B1B685F
:100814007979BA79520001FA02F211461E4A0B4361
:10082400136030E01D4B1B687979BA79520001FAE4
:1008340002F21146194A0B43136024E0184B1B685B
:100844007979BA79520001FA02F21146144A0B433B
:10085400136018E0134B1B687979BA79520001FAD6
:1008640002F211460F4A0B4313600CE00E4B1B6857
:100874007979BA79520001FA02F211460A4A0B4315
:10088400136000E000BF00BF0C37BD465DF8047B79
:10089400704700BF0000024000040240000802400C
:1008A400000C024000100240001C024080B483B0DF
:1008B40000AF0346FB710B46BB7113467B71BB79DA
:1008C400072B5BD8FB79052B00F2BE8001A252F8FE
:1008D40023F000BFF10800080909000821090008F5
:1008E4003909000851090008690900085B4B1B6AB3
:1008F4007979BA79920001FA02F21146574A0B4308
:100904001362A4E0564B1B6A7979BA79920001FA12
:1009140002F21146524A0B43136298E0514B1B6A90
:100924007979BA79920001FA02F211464D4A0B43E1
:1009340013628CE04C4B1B6A7979BA79920001FA04
:1009440002F21146484A0B43136280E0474B1B6A8C
:100954007979BA79920001FA02F21146434A0B43BB
:10096400136274E0424B1B6A7979BA79920001FAF6
:1009740002F211463E4A0B43136268E0FB79052BF1
:1009840064D801A252F823F0A5090008C10900089F
:10099400DD090008F9090008150A0008310A0008F1
:1009A4002E4B5B6A7979BA7902F00702920001FA58
:1009B40002F21146294A0B43536248E0284B5B6A12
:1009C4007979BA7902F00702920001FA02F211462B
:1009D400234A0B4353623AE0224B5B6A7979BA7932
:1009E40002F00702920001FA02F211461D4A0B437B
:1009F40053622CE01C4B5B6A7979BA7902F00702E6
:100A0400920001FA02F21146174A0B4353621EE0A8
:100A1400164B5B6A7979BA7902F00702920001FAFF
:100A240002F21146114A0B43536210E0104B5B6A09
:100A34007979BA7902F00702920001FA02F21146BA
:100A44000B4A0B43536202E000BF00E000BF00BF4B
:100A54000C37BD465DF8047B704700BF00000240C0
:100A64000004024000080240000C02400010024052
:100A7400001C024080B483B000AF03460A46FB71F9
:100A84001346BB71FB79032B36D801A252F823F02D
:100A9400A50A0008BB0A0008D10A0008E70A0008F2
:100AA400194B1B68BA79012101FA02F21146164A60
:100AB4000B43136021E0154B1B68BA79012101FA3D
:100AC40002F21146114A0B43136016E0104B1B68E7
:100AD400BA79012101FA02F211460D4A0B4313605F
:100AE4000BE00C4B1B68BA79012101FA02F21146A2
:100AF400084A0B43136000E000BF00BF0C37BD463B
:100B04005DF8047B704700BF30380240343802403F
:100B1400403802404438024080B483B000AF0346FA
:100B24000A46FB711346BB71FB79032B3AD801A229
:100B340052F823F0490B0008610B0008790B0008F8
:100B4400910B00081B4B1B68BA79012101FA02F2D0
:100B5400D2431146174A0B40136024E0164B1B681E
:100B6400BA79012101FA02F2D2431146124A0B402A
:100B7400136018E0114B1B68BA79012101FA02F2E3
:100B8400D24311460D4A0B4013600CE00C4B1B681A
:100B9400BA79012101FA02F2D2431146084A0B4004
:100BA400136000E000BF00BF0C37BD465DF8047B56
:100BB400704700BF303802403438024040380240A9
:100BC4004438024080B400AF0B4B1B680A4A43F020
:100BD40001031360084B9B68074A23F001039360E9
:100BE400054B9B68044A23F00203936000BFBD4693
:100BF4005DF8047B704700BF0038024080B400AF4A
:100C0400054B1B68044A23F00403136000BFBD4670
:100C14005DF8047B704700BF10E000E080B483B04F
:100C240000AF7860124A7B685360114B00229A60CF
:100C34000F4B1B680E4A43F00103136000BF0C4BBB
:100C44001B6803F48033002BF9D0094B1B68084A56
:100C540023F001031360064B00225A60044B002268
:100C64009A6000BF0C37BD465DF8047B704700BF37
:100C740010E000E080B400AF084B1B68074A23F083
:100C840001031360054B00225A60044B00229A6052
:100C940000BFBD465DF8047B704700BF10E000E074
:100CA40080B483B000AF7860154B00225A60144BB7
:100CB40000229A60124A7B685360114B00229A60AA
:100CC4000F4B1B680E4A43F00103136000BF0C4B2B
:100CD4001B6803F48033002BF9D0094B1B68084AC6
:100CE40023F001031360064B00225A60044B0022D8
:100CF4009A6000BF0C37BD465DF8047B704700BFA7
:100D040010E000E080B483B000AF786039600D4A31
:100D14007B6853600B4B1B680A4A43F00103136062
:100D2400094A3B681360094B01221A70054B1B6882
:100D3400044A43F00203136000BF0C37BD465DF85C
:100D4400047B704710E000E0080100200C01002043
:100D540080B582B000AF7860FFF750FF094B1B6885
:100D6400084A23F0020313607B684FF4FA6202FB23
:100D740003F31846FFF752FFFFF77CFF00BF083765
:100D8400BD4680BD10E000E080B582B000AF002316
:100D9400FB71144B1B78012B11D1134B1B68124AA6
:100DA40023F002031360104B1B680F4A23F0010366
:100DB40013600D4B00225A600B4B00229A600B4BC0
:100DC4001B68002B02D0094B1B689847064B1B6815
:100DD4001B0CDBB203F00103FB7100BF0837BD46F7
:100DE40080BD00BF0C01002010E000E008010020DD
:100DF40080B400AF1C4B40F283629A601A4B1A4ACB
:100E04001B691361184AD3686FF30003D360164A51
:100E1400D36843F00403D360134AD36843F0080350
:100E2400D360114AD3686FF34513D3600E4AD36875
:100E34006FF38613D3600C4AD3686FF38A23D360AD
:100E4400094AD3686FF34923D360074AD3686FF321
:100E54000C33D360044AD3686FF3CF33D36000BF3D
:100E6400BD465DF8047B70470010014080B483B038
:100E740000AF0346FB71FB79062B12D0062B16DC60
:100E8400012B02D0022B06D011E00C4AD36843F4A4
:100E94000053D3600BE00A4AD36843F40053D36091
:100EA40005E0084AD36843F40053D36000BF00BF91
:100EB4000C37BD465DF8047B704700BF001001404D
:100EC400004400400014014080B483B000AF0346E6
:100ED400FB71FB79062B12D0062B16DC012B02D0FA
:100EE400022B06D011E00C4AD3686FF34D33D36064
:100EF4000BE00A4AD3686FF34D33D36005E0084A28
:100F0400D3686FF34D33D36000BF00BF0C37BD46C9
:100F14005DF8047B704700BF0010014000440040AE
:100F24000014014080B584B000AF03460A46FB714B
:100F34001346BB71FB79184600F038F8F86000BF1F
:100F4400FB681B6803F08003002BF9D0BA79FB68B7
:100F54005A6000BFFB681B6803F04003002BF9D004
:100F640000BF00BF1037BD4680BD80B584B000AF60
:100F740003463960FB71FB79184600F017F8B86036
:100F84000123FB73BB681B685B0903F00103012B9E
:100F940005D1BB685B68DAB23B681A7001E00023D4
:100FA400FB73FB7B18461037BD4680BD80B485B00B
:100FB40000AF0346FB710E4BFB60FB79062B0CD094
:100FC400062B0DDC012B02D0022B03D008E0084BCA
:100FD400FB6005E0074BFB6002E0074BFB6000BFD2
:100FE400FB6818461437BD465DF8047B704700BFA4
:100FF40000100140004400400014014080B500AFDF
:10100400034B00221A60034B1B68984700BF80BD46
:10101400001001401001002080B500AF034B0022F6
:101024001A60034B1B68984700BF80BD0044004012
:101034001401002080B500AF034B00221A60034B5B
:101044001B68984700BF80BD0014014018010020B0
:1010540080B582B000AFFFF7B5FDFFF7CFFD4FF4C9
:10106400FA70FFF775FE00210020FFF703FD04214D
:101074000320FFF7FFFC022209210020FFF79EFB5B
:1010840002220A210020FFF799FB072209210020F0
:10109400FFF70CFC07220A210020FFF707FCFFF7EB
:1010A400A7FE0120FFF7E2FE6E4B1B68B3F1FF3F82
:1010B40006D16D4B00221A706C4B01221A7016E097
:1010C400684B1B686A4A934206D1674B01221A7027
:1010D400664B02221A700AE0624B1B68654A93420F
:1010E40005D1614B02221A70604B01221A70422111
:1010F4000120FFF717FF60496048FFF703FE002354
:10110400FB7196E05E4B1B78DBB21A465D4B1344D1
:1011140019460120FFF729FF0346FB71FB79012BD8
:1011240040F08780FFF7A6FD554B1B78DBB21A46CB
:10113400544B9B5CDBB20A2B64D1534B1B78DBB260
:10114400012B25D14F4B1B78DBB2312B04D04D4BF7
:101154001B78DBB2322B07D142210120FFF7E2FEDC
:10116400474B00221A7064E0404B1B78DBB2012B22
:1011740003D10420FFF76CFA07E03C4B1B78DBB289
:10118400022B02D10520FFF763FA3F4B00221A70AD
:101194003C48FFF789F903461A463C4B1A703B4B0F
:1011A4001B78012B0AD13748FFF764F84B21012043
:1011B400FFF7B8FE364B00221A701FE0344B1B7841
:1011C4000133DAB2324B1A70314B1B78012B03D046
:1011D4002F4B1B78022B04D14E210120FFF7A2FED6
:1011E4000CE02B4B1B78032B08D146210120FFF781
:1011F40099FE274B00221A7000F04EF8204B002273
:101204001A7006E01E4B1B78DBB20133DAB21C4BBA
:101214001A701C4B1B7ADBB2312B0AD14B210120F3
:10122400FFF780FE114B1B78DAB20F4B1A7000F0F7
:1012340033F8184B1B78DBB2002B3FF463AF154B2C
:101244001B78DBB2012B07D11420FFF781FD00F0DE
:101254005FF81420FFF77CFD002318460837BD46CD
:1012640080BD00BF00C000081C0100201D0100203B
:10127400AAAAFFFFBBBBFFFF9D120008C0E1E40068
:10128400840100202001002004000020050000202B
:10129400860100208501002080B500AF164B012295
:1012A4001A70164B1B78DBB2022B18D0022B21DCF0
:1012B400002B02D0012B07D01CE00F4B00221A7028
:1012C4000F48FFF7EDFC15E0FFF7D4FC0320FFF710
:1012D400BFF901220B490C48FFF70EFA0AE0FFF7A9
:1012E400C9FC0320FFF7B4F9012208490648FFF7B7
:1012F40003FA00BF00BF80BD850100201C0100204F
:10130400C0E1E4000000002000C00008020000204A
:1013140080B500AF0F4B1B78DBB2022B0ED0022B33
:1013240015DC002B12D0012B00D010E000F014F8D3
:10133400FEF74EFF1420FFF70BFD08E000F00CF859
:10134400FEF75EFF1420FFF703FD00E000BF00BFBF
:1013540080BD00BF1C01002080B500AF0120FFF755
:10136400B3FD04210320FFF7D7FB00BF80BD0000BD
:101374000D488546AFF300800C480D490D4A002303
:1013840002E0D458C4500433C4188C42F9D30A4A36
:101394000A4C002301E013600432A242FBD300F0A4
:1013A40011F8FFF755FEFEE70000012000000020C1
:1013B40008000020301400080800002088010020E4
:1013C400FEE7000070B50D4D0D4C641BA410002603
:1013D400A64209D10B4D0C4C00F018F8641BA41064
:1013E4000026A64205D170BD55F8043B9847013646
:1013F400EEE755F8043B98470136F2E72814000855
:1014040028140008281400082C140008F8B500BF9C
:10141400F8BC08BC9E467047F8B500BFF8BC08BCD1
:041424009E46704729
:04142800B9010008FE
:04142C00950100081E
:08143000AAAABBBB01010000E8
:040000050800137567
:00000001FF
