:020000040800F2
:1000000000000120F51400084515000845150008FA
:1000100045150008451500084515000800000000BA
:10002000000000000000000000000000451500086E
:100030004515000800000000451500080D0F0008D8
:10004000000000004515000845150008451500088A
:1000500045150008451500080D0600083106000882
:1000600055060008790600089D0600084515000899
:1000700045150008451500084515000845150008F8
:10008000451500084515000845150008000000004A
:1000900000000000000000000000000045150008FE
:1000A00045150008451500084515000845150008C8
:1000B00045150008451500084515000845150008B8
:1000C00045150008451500084515000845150008A8
:1000D00045150008811100089D110008000000006E
:1000E00045150008451500084515000800000000EA
:1000F000000000000000000000000000451500089E
:1001000000000000451500084515000845150008C9
:1001100000000000000000000000000000000000DF
:100120004515000845150008451500084515000847
:10013000451500080000000000000000000000005D
:10014000000000000000000000000000451500084D
:10015000451500084515000845150008B9110008A7
:1001600045150008451500080000000000000000CB
:10017000000000000000000000000000000000007F
:10018000000000000000000000000000000000006F
:040190004515000809
:1001940010B5054C237833B9044B13B10448AFF3BD
:1001A40000800123237010BD08000020000000001F
:1001B4009015000808B5034B1BB103490348AFF37E
:1001C400008008BD000000000C000020901500080D
:1001D40080B582B000AF074B074A1A60074B1B6813
:1001E4007B607B683B603B68984700BF0837BD462F
:1001F40080BD00BF08ED00E0000001080400010814
:1002040080B582B000AF074B074A1A60074B1B68E2
:100214007B607B683B603B68984700BF0837BD46FE
:1002240080BD00BF08ED00E00000020804000208E1
:1002340080B485B000AF0346FB710023FB73FB79E8
:100244002F2B06D9FB79392B03D8FB79303BFB7371
:1002540008E0FB79402B05D9FB79462B02D8FB79C2
:10026400373BFB73FB7B18461437BD465DF8047BB4
:100274007047000080B582B000AF78607B680833B7
:100284001B78303B052B32D801A252F823F000BF73
:10029400AD020008F3020008F3020008F3020008AC
:1002A400B5020008EB020008786800F035F821E098
:1002B400124B1B68B3F1FF3F03D1114B114A1A6073
:1002C40017E00E4B1B68104A934203D10C4B0F4AA4
:1002D4001A600EE0094B1B680D4A934209D1084B82
:1002E400084A1A6005E00B4B01221A7002E000BFB5
:1002F40000E000BF00BF0837BD4680BD00C0000855
:100304002400002000000108AAAAFFFF0000020840
:10031400BBBBFFFFF000002080B586B000AF786063
:1003240000233B617B6801331B781846FFF780FF8D
:100334000346FB737B6802331B781846FFF778FF8C
:100344000346BB73FB7B1B015AB297F90E30134370
:100354005BB27B737B6803331B781846FFF768FF37
:1003640003463B737B6804331B781846FFF760FF32
:100374000346FB757B6805331B781846FFF758FF67
:100384000346FB727B6806331B781846FFF750FF61
:100394000346BB723B691B0C1B043B613B7B1B0389
:1003A4001A463D4B1B681343FA7D12021343FA7A33
:1003B40012011A43BB7A13433B610023BB7557E018
:1003C400BB7D9B0009337A6813441B781846FFF7FA
:1003D4002FFF03463B73BB7D9B000A337A681344AB
:1003E4001B781846FFF724FF0346FB75BB7D9B0073
:1003F4000B337A6813441B781846FFF719FF03463A
:10040400FB72BB7D9B000C337A6813441B7818463F
:10041400FFF70EFF0346BB723B7B002B0FD1FB7D26
:10042400012B0CD1FB7A002B09D1BB7A082B06D106
:100434001A4B1B681A4A934201D10223FB75FB7ABB
:100444001B031AB2BB7A1B021BB213431AB23B7BC7
:100454001B011BB213431AB2FB7D1BB213431AB226
:10046400BB7D91B20F4A22F81310BB7D0133BB75DB
:100474007B7B5B08DBB2BA7D9A42A1D37B7B5B08B2
:10048400DBB29BB21A460749386900F06BF900BF2A
:100494001837BD4680BD00BF2400002000C00008FE
:1004A400AAAAFFFF2800002090B589B000AF7860A9
:1004B4000023FB750023BB7500237B7500233B756C
:1004C4000023FB7700233B617B6801331B781846CC
:1004D400FFF7AEFE0346FB757B6802331B781846B4
:1004E400FFF7A6FE0346BB75FB7D1B015AB297F9C5
:1004F400163013435BB27B757B7D0433DBB25B0048
:100504003B750123BB6119E0BB697A6813441B780E
:100514001846FFF78DFE03461C01BB6901337A6858
:1005240013441B781846FFF783FE03462343DAB2CD
:10053400FB7F1344FB77BB690233BB613B7DBA6924
:100544009A42E1DBFB7F5B42FB773B7D01337A68B8
:1005540013441B781846FFF76BFE0346FB603B7D94
:1005640002337A6813441B781846FFF761FE03468A
:10057400BB60FB681B01BA6813433B613B69DAB299
:10058400FB7F9A4202D10123BB7701E00023BB77B2
:10059400BB7F18462437BD4690BD80B582B000AFFE
:1005A40078607B681B68D8B27B685B68DBB2012229
:1005B400194600F039F900BF0837BD4680BD80B543
:1005C40082B000AF78607B681B68D8B27B685B68D8
:1005D400DBB20122194600F09FF900BF0837BD467F
:1005E40080BD80B582B000AF78607B681B68D8B2EC
:1005F4007B685B68DBB20022194600F08DF900BF0E
:100604000837BD4680BD000080B500AF054B1B68B0
:100614009847054B5B69044A43F00103536100BFEB
:1006240080BD00BFF4000020003C014080B500AF55
:10063400054B1B689847054B5B69044A43F002036A
:10064400536100BF80BD00BFF8000020003C0140A2
:1006540080B500AF054B1B689847054B5B69044A9E
:1006640043F00403536100BF80BD00BFFC000020C1
:10067400003C014080B500AF054B1B689847054B13
:100684005B69044A43F00803536100BF80BD00BFA7
:1006940000010020003C014080B500AF054B1B6801
:1006A4009847054B5B69044A43F01003536100BF4C
:1006B40080BD00BF04010020003C014080B483B031
:1006C40000AF0346FB7100BF234BDB681B0C03F038
:1006D4000103012BF8D0204B1B69DB0F03F001034E
:1006E400012B05D11C4B1D4A5A601B4B1C4A5A60F6
:1006F400194B1B69184A23F078031361164B1B69C5
:10070400FA79D2001146144A0B431361124B1B6948
:10071400114A43F0020313610F4B1B690E4A43F461
:100724008033136100BF0C4BDB681B0C03F0010327
:10073400012BF8D0084BDB68074A43F00103D36070
:10074400054B1B69044A23F00203136100BF0C37F5
:10075400BD465DF8047B7047003C024023016745B9
:10076400AB89EFCD80B487B000AFF860B9601346B1
:10077400FB8000BF294BDB681B0C03F00103012B3A
:10078400F8D0264B1B69DB0F03F00103012B05D1C5
:10079400224B234A5A60214B224A5A601F4B1B6941
:1007A4001E4A23F4407313611C4B1B691B4A43F418
:1007B40080731361194B1B69184A43F001031361D9
:1007C4000023FB821AE0FB8A5B00BA681A44FB68C8
:1007D40012881A80FB680233FB6000BF0F4BDB6892
:1007E4001B0C03F00103012BF8D00C4BDB680B4A04
:1007F40043F00103D360FB8A0133FB82FA8AFB884E
:100804009A42E0D3054B1B69044A23F001031361A8
:1008140000BF1C37BD465DF8047B7047003C0240B6
:1008240023016745AB89EFCD80B483B000AF0346A5
:10083400FB710B46BB7113467B71FB79052B57D8B3
:1008440001A252F823F000BF650800087D080008E3
:1008540095080008AD080008C5080008DD08000870
:10086400274B1B687979BA79520001FA02F21146D2
:10087400234A0B4313603CE0224B1B687979BA7915
:10088400520001FA02F211461E4A0B43136030E093
:100894001D4B1B687979BA79520001FA02F21146AC
:1008A400194A0B43136024E0184B1B687979BA7911
:1008B400520001FA02F21146144A0B43136018E085
:1008C400134B1B687979BA79520001FA02F2114686
:1008D4000F4A0B4313600CE00E4B1B687979BA790D
:1008E400520001FA02F211460A4A0B43136000E077
:1008F40000BF00BF0C37BD465DF8047B704700BFE6
:10090400000002400004024000080240000C0240C3
:1009140000100240001C024080B483B000AF0346C4
:10092400FB710B46BB7113467B717B79012B55D14F
:10093400FB79052B00F2AC8001A252F823F000BF32
:100944005D09000873090008890900089F09000867
:10095400B5090008CB090008524B5B69BA7901213B
:1009640001FA02F211464F4A0B43536193E04E4B96
:100974005B69BA79012101FA02F211464A4A0B4332
:10098400536188E0494B5B69BA79012101FA02F2AB
:100994001146464A0B4353617DE0454B5B69BA7986
:1009A400012101FA02F21146414A0B43536172E0FC
:1009B400404B5B69BA79012101FA02F211463D4AC2
:1009C4000B43536167E03C4B5B69BA79012101FA3F
:1009D40002F21146384A0B4353615CE0FB79052B64
:1009E40058D801A252F823F0050A00081D0A00088D
:1009F400350A00084D0A0008650A00087D0A000847
:100A0400284B5B69BA79012101FA02F2D2431146FB
:100A1400244A0B4053613EE0234B5B69BA790121C0
:100A240001FA02F2D24311461F4A0B40536132E0ED
:100A34001E4B5B69BA79012101FA02F2D2431146D5
:100A44001A4A0B40536126E0194B5B69BA790121BC
:100A540001FA02F2D2431146154A0B4053611AE0DF
:100A6400144B5B69BA79012101FA02F2D2431146AF
:100A7400104A0B4053610EE00F4B5B69BA790121B8
:100A840001FA02F2D24311460B4A0B40536102E0D1
:100A940000BF00E000BF00BF0C37BD465DF8047B1B
:100AA400704700BF000002400004024000080240FA
:100AB400000C024000100240001C024080B483B0CD
:100AC40000AF0346FB710B46BB7113467B71BB79C8
:100AD400072B5BD8FB79052B00F2BE8001A252F8EC
:100AE40023F000BF010B0008190B0008310B0008AC
:100AF400490B0008610B0008790B00085B4B1B6A6B
:100B04007979BA79920001FA02F21146574A0B43F5
:100B14001362A4E0564B1B6A7979BA79920001FA00
:100B240002F21146524A0B43136298E0514B1B6A7E
:100B34007979BA79920001FA02F211464D4A0B43CF
:100B440013628CE04C4B1B6A7979BA79920001FAF2
:100B540002F21146484A0B43136280E0474B1B6A7A
:100B64007979BA79920001FA02F21146434A0B43A9
:100B7400136274E0424B1B6A7979BA79920001FAE4
:100B840002F211463E4A0B43136268E0FB79052BDF
:100B940064D801A252F823F0B50B0008D10B000869
:100BA400ED0B0008090C0008250C0008410C000896
:100BB4002E4B5B6A7979BA7902F00702920001FA46
:100BC40002F21146294A0B43536248E0284B5B6A00
:100BD4007979BA7902F00702920001FA02F2114619
:100BE400234A0B4353623AE0224B5B6A7979BA7920
:100BF40002F00702920001FA02F211461D4A0B4369
:100C040053622CE01C4B5B6A7979BA7902F00702D3
:100C1400920001FA02F21146174A0B4353621EE096
:100C2400164B5B6A7979BA7902F00702920001FAED
:100C340002F21146114A0B43536210E0104B5B6AF7
:100C44007979BA7902F00702920001FA02F21146A8
:100C54000B4A0B43536202E000BF00E000BF00BF39
:100C64000C37BD465DF8047B704700BF00000240AE
:100C74000004024000080240000C02400010024040
:100C8400001C024080B483B000AF03460A46FB71E7
:100C94001346BB71FB79032B36D801A252F823F01B
:100CA400B50C0008CB0C0008E10C0008F70C000898
:100CB400194B1B68BA79012101FA02F21146164A4E
:100CC4000B43136021E0154B1B68BA79012101FA2B
:100CD40002F21146114A0B43136016E0104B1B68D5
:100CE400BA79012101FA02F211460D4A0B4313604D
:100CF4000BE00C4B1B68BA79012101FA02F2114690
:100D0400084A0B43136000E000BF00BF0C37BD4628
:100D14005DF8047B704700BF30380240343802402D
:100D2400403802404438024080B483B000AF0346E8
:100D34000A46FB711346BB71FB79032B3AD801A217
:100D440052F823F0590D0008710D0008890D0008B0
:100D5400A10D00081B4B1B68BA79012101FA02F2AC
:100D6400D2431146174A0B40136024E0164B1B680C
:100D7400BA79012101FA02F2D2431146124A0B4018
:100D8400136018E0114B1B68BA79012101FA02F2D1
:100D9400D24311460D4A0B4013600CE00C4B1B6808
:100DA400BA79012101FA02F2D2431146084A0B40F2
:100DB400136000E000BF00BF0C37BD465DF8047B44
:100DC400704700BF30380240343802404038024097
:100DD4004438024080B400AF0B4B1B680A4A43F00E
:100DE40001031360084B9B68074A23F001039360D7
:100DF400054B9B68044A23F00203936000BFBD4681
:100E04005DF8047B704700BF0038024080B400AF37
:100E1400054B1B68044A23F00403136000BFBD465E
:100E24005DF8047B704700BF10E000E080B400AFC1
:100E3400084B1B68074A23F001031360054B00228B
:100E44005A60044B00229A6000BFBD465DF8047BE3
:100E5400704700BF10E000E080B483B000AF78605A
:100E6400154B00225A60144B00229A60124A7B6888
:100E74005360114B00229A600F4B1B680E4A43F0DB
:100E84000103136000BF0C4B1B6803F48033002B79
:100E9400F9D0094B1B68084A23F001031360064B81
:100EA40000225A60044B00229A6000BF0C37BD46F2
:100EB4005DF8047B704700BF10E000E080B483B0AD
:100EC40000AF786039600D4A7B6853600B4B1B6838
:100ED4000A4A43F001031360094A3B681360094B53
:100EE40001221A70054B1B68044A43F00203136085
:100EF40000BF0C37BD465DF8047B704710E000E08E
:100F0400080100200C01002080B582B000AF00234E
:100F1400FB71144B1B78012B11D1134B1B68124A24
:100F240023F002031360104B1B680F4A23F00103E4
:100F340013600D4B00225A600B4B00229A600B4B3E
:100F44001B68002B02D0094B1B689847064B1B6893
:100F54001B0CDBB203F00103FB7100BF0837BD4675
:100F640080BD00BF0C01002010E000E0080100205B
:100F740080B400AF1C4B40F283629A601A4B1A4A49
:100F84001B691361184AD3686FF30003D360164AD0
:100F9400D36843F00403D360134AD36843F00803CF
:100FA400D360114AD3686FF34513D3600E4AD368F4
:100FB4006FF38613D3600C4AD3686FF38A23D3602C
:100FC400094AD3686FF34923D360074AD3686FF3A0
:100FD4000C33D360044AD3686FF3CF33D36000BFBC
:100FE400BD465DF8047B70470010014080B483B0B7
:100FF40000AF0346FB71FB79062B12D0062B16DCDF
:10100400012B02D0022B06D011E00C4AD36843F422
:101014000053D3600BE00A4AD36843F40053D3600F
:1010240005E0084AD36843F40053D36000BF00BF0F
:101034000C37BD465DF8047B704700BF00100140CB
:10104400004400400014014080B483B000AF034664
:10105400FB71FB79062B12D0062B16DC012B02D078
:10106400022B06D011E00C4AD3686FF34D33D360E2
:101074000BE00A4AD3686FF34D33D36005E0084AA6
:10108400D3686FF34D33D36000BF00BF0C37BD4648
:101094005DF8047B704700BF00100140004400402D
:1010A4000014014080B584B000AF03460A46FB71CA
:1010B4001346BB71FB79184600F038F8F86000BF9E
:1010C400FB681B6803F08003002BF9D0BA79FB6836
:1010D4005A6000BFFB681B6803F04003002BF9D083
:1010E40000BF00BF1037BD4680BD80B584B000AFDF
:1010F40003463960FB71FB79184600F017F8B860B5
:101104000123FB73BB681B685B0903F00103012B1C
:1011140005D1BB685B68DAB23B681A7001E0002352
:10112400FB73FB7B18461037BD4680BD80B485B089
:1011340000AF0346FB710E4BFB60FB79062B0CD012
:10114400062B0DDC012B02D0022B03D008E0084B48
:10115400FB6005E0074BFB6002E0074BFB6000BF50
:10116400FB6818461437BD465DF8047B704700BF22
:1011740000100140004400400014014080B500AF5D
:10118400034B00221A60034B1B68984700BF80BDC5
:10119400001001401001002080B500AF034B002275
:1011A4001A60034B1B68984700BF80BD0044004091
:1011B4001401002080B500AF034B00221A60034BDA
:1011C4001B68984700BF80BD00140140180100202F
:1011D40080B582B000AFFFF7FDFD00210020FFF7CE
:1011E40051FD04210320FFF74DFD022209210020B7
:1011F400FFF71AFB02220A210020FFF715FB072242
:1012040009210020FFF75AFC07220A210020FFF7DA
:1012140055FCFFF7ADFE0120FFF7E8FEFFF7F6FDF2
:101224006E48FFF7BAF96D48FFF7C9F96C4B1B68B4
:10123400B3F1FF3F06D16B4B00221A706A4B0122B7
:101244001A7016E0664B1B68684A934206D1654BD8
:1012540001221A70644B02221A700AE0604B1B6868
:10126400634A934205D15F4B02221A705E4B0122FE
:101274001A7042210120FFF715FF5E495E48FFF70F
:101284001DFE0023FB7196E05C4B1B78DBB21A4613
:101294005B4B134419460120FFF727FF0346FB71FC
:1012A400FB79012B40F08780FFF7C0FD534B1B787F
:1012B400DBB21A46524B9B5CDBB20A2B64D1514B16
:1012C4001B78DBB2012B25D14D4B1B78DBB2312BC4
:1012D40004D04B4B1B78DBB2322B07D142210120C7
:1012E400FFF7E0FE454B00221A7064E03E4B1B788A
:1012F400DBB2012B03D10420FFF7E0F907E03A4BFE
:101304001B78DBB2022B02D10520FFF7D7F93D4B46
:1013140000221A703A48FFF7C7F803461A463A4BB8
:101324001A70394B1B78012B0AD13548FEF7A2FFFE
:101334004B210120FFF7B6FE344B00221A701FE048
:10134400324B1B780133DAB2304B1A702F4B1B78B7
:10135400012B03D02D4B1B78022B04D14E210120ED
:10136400FFF7A0FE0CE0294B1B78032B08D1462184
:101374000120FFF797FE254B00221A7000F04AF86F
:101384001E4B00221A7006E01C4B1B78DBB20133A3
:10139400DAB21A4B1A701A4B1B7ADBB2312B0AD110
:1013A40044210120FFF77EFE0F4B1B78DAB20D4B70
:1013B4001A7000F02FF8164B1B78DBB2002B3FF4A9
:1013C40063AF134B1B78DBB2012B01D100F05EF845
:1013D400002318460837BD4680BD00BFA815000885
:1013E40000C000081C0100201D010020AAAAFFFF64
:1013F400BBBBFFFF19140008C0E1E4008401002016
:1014040020010020040000200500002086010020A7
:101414008501002080B500AF164B01221A70164BCF
:101424001B78DBB2022B18D0022B21DC002B02D05C
:10143400012B07D01CE00F4B00221A700F48FFF756
:101444000BFD15E00320FFF739F901220C490D4883
:10145400FFF788F9FFF7EAFC0AE00320FFF72EF90B
:10146400012209490748FFF77DF9FFF7DFFC00BFB8
:1014740000BF80BD850100201C010020C0E1E40004
:101484000000002000C000080200002080B500AF6A
:101494000C4B1B78DBB2022B0BD0022B0FDC002B86
:1014A4000CD0012B00D00AE000F00EF8FEF790FEFD
:1014B40005E000F009F8FEF7A3FE00E000BF00BF5E
:1014C40080BD00BF1C01002080B500AF0748FFF7B6
:1014D40088F80120FFF7B8FD00210020FFF724FC65
:1014E40004210320FFF720FC00BF80BDA8150008DD
:1014F4000D488546AFF300800C480D490D4A002382
:1015040002E0D458C4500433C4188C42F9D30A4AB4
:101514000A4C002301E013600432A242FBD300F022
:1015240011F8FFF755FEFEE700000120000000203F
:1015340008000020B81500080800002088010020D9
:10154400FEE7000070B50D4D0D4C641BA410002681
:10155400A64209D10B4D0C4C00F018F8641BA410E2
:101564000026A64205D170BD55F8043B98470136C4
:10157400EEE755F8043B98470136F2E7B01500084A
:10158400B0150008B0150008B4150008F8B500BF80
:10159400F8BC08BC9E467047F8B500BFF8BC08BC50
:0415A4009E467047A8
:0815A80000000000000000003B
:0415B000B901000875
:0415B4009501000895
:0815B800AAAABBBB010100005F
:04000005080014F5E6
:00000001FF
